:020000021000EC
:10B00000008000200D5C02004D5C02004F5C0200DD
:10B010000000000000000000000000000000000030
:10B02000000000000000000000000000A503020076
:10B030000000000000000000A9030200555C0200AF
:10B04000BDDB0100575C020019E101002DE90100A0
:10B0500011E301000000000045DF0100575C020021
:10B06000575C0200575C0200575C0200575C02000C
:10B07000575C0200575C0200575C0200575C0200FC
:10B08000575C0200AD050200575C0200575C0200ED
:10B09000575C0200575C0200155F0200575C02001B
:10B0A000575C0200575C0200000000000000000036
:10B0B0000000000000000000000000000000000090
:10B0C00010B5064C2378002B07D1054B002B02D07E
:10B0D000044800E000BF0123237010BD18230020A6
:10B0E000000000007C7E0200044B10B5002B03D052
:10B0F0000349044800E000BF10BDC0460000000046
:10B100001C2300207C7E0200144B002B00D1124B2C
:10B110009D46402292029A1A924600218B460F4683
:10B120001148124A121A00F07BF80D4B002B00D088
:10B1300098470C4B002B00D09847002000210400BA
:10B140000D000B4800F016F800F046F8200029002A
:10B1500003F09EFC00F016F80000080000800020BC
:10B1600000000000000000001823002058650020A7
:10B17000B1B10100002310B501001A00180000F061
:10B1800057F810BD084B10B50400002B02D0002169
:10B1900000F0B8F8054B1868836A002B00D0984778
:10B1A000200000F019F9C04605B30100207202002A
:10B1B00070B5074D074C641BA410002C02D10CF095
:10B1C00029F870BD013CA300EB589847F5E7C0464D
:10B1D000F4220020F822002070B500260C4D0D4C02
:10B1E000641BA410A64209D100260CF00DF80A4DEC
:10B1F0000A4C641BA410A64205D170BDB300EB58E5
:10B2000098470136EEE7B300EB5898470136F2E76E
:10B21000F0220020F0220020F0220020F422002062
:10B2200003001218934200D1704719700133F9E7F7
:10B23000F0B5304D85B02C680600019117000293DF
:10B24000002C0AD12C4B2D4A2B601C00002A04D064
:10B2500019001268883103920A6063681F2B3DDD74
:10B26000274B002B03D10120404205B0F0BD8C20BC
:10B2700000E000BF041EF6D02A680023026002002E
:10B2800088324360286013609E421ED084204000B4
:10B2900000E000BF0028E6D003000022FC335A6023
:10B2A0009A60230088331860012261688A408B000D
:10B2B000C31880C3FC304168114341600299D967CB
:10B2C000022E02D183681A438260636800205A1CF0
:10B2D00062600233019A9B001A51C6E7002EF4D037
:10B2E0002300883318680028DED1054B002BBAD024
:10B2F000CCE7C046C023002034230020000000001B
:10B3000000000000F0B585B003900191304D2C682D
:10B31000002C01D105B0F0BD230088331E6863689E
:10B320005F1E9B000093002F14DA2A4B002BF1D0F4
:10B3300062682368002A49D1002B47D02B60002E79
:10B3400002D0300000E000BF200000E000BF2B680A
:10B350001C00DDE7019B002B0BD0002E03D1009BCE
:10B36000013F043BDEE7009B019AF318DB6F934239
:10B37000F5D1009B6268E118013A4B68BA4216D1D8
:10B380006760002BEBD062680292002E06D001228B
:10B390003000BA40FC30416811420BD198476368D5
:10B3A000029A9342B2D12B68A342D8D0AEE70022D2
:10B3B0004A60E6E70099806804397158104202D16A
:10B3C00003989847EBE708009847E8E72500BFE7B0
:10B3D000C023002000000000FEE7C046F8B50700CB
:10B3E0000C000A26002579192200002006F0F0FB47
:10B3F0002D18241A002802D1013E002E01D0002C65
:10B40000F1D10120F8BDC046F0B5DE464E464546B6
:10B410005746E0B5C5B01600519A1D0094464F9BA3
:10B4200063449B46002900D19CE0002D1FD104AA53
:10B4300014000B68802101924900574A20000BF04C
:10B4400063FB002800DAA5E00A2327180500300076
:10B4500003930BF093FB0400C22800D991E0220073
:10B460003100380064190BF08CFA002504E00A233F
:10B470000393002404AB01932F002026039A019923
:10B480009446A44463468C46029331336344644437
:10B490000093002A64D09246A24453462670013499
:10B4A0009C42FBD19A4610229446009B54461D00B4
:10B4B0006344994607E026706670A6702E700135C9
:10B4C0000334A9452CD0BB45F5D94F9BBB4241D98C
:10B4D0004E9BDB5D984643461B11DAB211003731B3
:10B4E000092B01DC3032110042460F2313401A00B1
:10B4F00021703732092B01D830331A006270A670E0
:10B500000BF010FA682240444378934301D12E3364
:10B51000984643462B70013501370334A945D2D1F3
:10B520000D23009A02991374033B53745246263339
:10B53000D65443310198FFF751FF002802D0002470
:10B540005F459BD3380045B03CBC90469946A24627
:10B55000AB46F0BD4F9B509AFB1AD35C9846BAE7B6
:10B56000A246A0E700230393002D00D081E704AB9F
:10B57000300001931F000BF001FB0400C22800D82B
:10B580006DE7C22431002200380064190BF0F9F98C
:10B59000002571E70027D5E75C72020070B5C6B0E0
:10B5A00016001D004A9C002912D00B6880215E4ABB
:10B5B000490006A80BF0A8FA031E06DB062C00D9EA
:10B5C000AFE05A4AA40012599746002046B070BD19
:10B5D000062C00D9A3E0564AA300D3589F46040086
:10B5E00030000BF0CBFA03190500FF2B00D88FE0D9
:10B5F000002DEADB2900802309195B009942E4D879
:10B6000006A8FFF7EBFEE1E780210024490006A829
:10B610006A692B6804922A690392EA680292AA680E
:10B6200001926A68009232000BF06EFA0500DFE7C3
:10B6300080210024490006A82A692B680392EA6841
:10B640000292AA6801926A68009232000BF05CFADA
:10B650000500CDE780210024490006A8EA682B6890
:10B660000292AA6801926A68009232000BF04CFACA
:10B670000500BDE780210024490006A8AA682B68C0
:10B6800001926A68009232000BF03EFA0500AFE7C3
:10B6900080210024490006A86A682B6800923200C5
:10B6A0000BF032FA0500A3E780210024490006A828
:10B6B0002B6832000BF028FA050099E7802106AAD2
:10B6C00049001018C91A1C00F2E7802106AA490097
:10B6D0001018C91A1C00DFE7802106AA49001018BB
:10B6E000C91A1C00CAE7802106AA49001018C91A05
:10B6F0001C00B3E7802106AA49001018C91A1C00D3
:10B700009AE7802106AA49001018C91A1C007FE791
:10B7100006AB18192A0031000BF033F968E7002155
:10B720006EE70400002166E75C72020024720200EA
:10B730004072020070B5084C06002378074D002BBC
:10B7400002D02B78834204D006F088FA01232E70B1
:10B750002370002070BDC046C5230020C4230020F4
:10B76000004870479DB501000048704709B40100CA
:10B7700070B5051E17D00020FFF7DCFF041E01D0B6
:10B78000200070BDFFF7ECFF0600FFF7EDFFFF2282
:10B79000064B9A60064A1C609D5004329E50054A32
:10B7A0005C609850ECE70724EAE7C046C823002015
:10B7B0000C0400001404000010B50120FFF7BAFFCC
:10B7C00010BDC046F0B5CE46474680B583B06B4647
:10B7D000DE1D0023264C8146300033708846A76862
:10B7E00000F064FCA26863682568D31801335B1B12
:10B7F000032B1ED8012B14D929211E4B9B02194360
:10B8000013002B4002339B00E31859601A4BA91C0C
:10B81000E35821600135154098470235AD006419A1
:10B820006060307800F062FC03B00CBC9046994632
:10B83000F0BDAB1C3078236000F058FC4B4607226B
:10B840001A40D3004246910201221A432B003B408A
:10B8500002339B00E3180A435A60074B0135E35853
:10B8600098472F400237BF00E4196060DCE7C0460C
:10B87000C8230020647202000C040000F0B54F469B
:10B88000D6464646C0B582B06B46DF1D00232B4C22
:10B890008246380090463B708946A66800F006FC58
:10B8A000A26863682568D31801335B1B042B1FD87B
:10B8B000012B14D92921224B9B02194313002B4041
:10B8C00002339B00E31859601E4BA91CE35821600A
:10B8D0000135154098470235AD006419606038782D
:10B8E00000F004FC02B01CBC90469946A246F0BD94
:10B8F000EB1C3878236000F0F9FB53460721412206
:10B9000019404B46C9009B02114319432B00334099
:10B9100002339B00E31859600A4B6F1CE3589847A9
:10B920004346023537402E4002370236BF00B6008C
:10B93000E719A41978606360D4E7C046C8230020E3
:10B94000647202000C040000F0B55746DE464E4615
:10B950004546E0B583B098466B46DF1D00232F4C6B
:10B960008346380091463B708A46A66800F09EFBED
:10B97000A26863682568D31801335B1B052B20D8A8
:10B98000012B14D92921264B9B02194313002B406C
:10B9900002339B00E3185960224BA91CE358216035
:10B9A0000135154098470235AD006419606038785C
:10B9B00000F09CFB03B03CBC90469946A246AB46C7
:10B9C000F0BD2B1D3878236000F090FB5B4607210B
:10B9D000812219405346C90011439B0219432B0091
:10B9E000334002339B00E31859600E4B6F1CE35841
:10B9F00098474A46AB1C3740334002370233BF00FA
:10BA00009B00E318E71978605A60434603353540D8
:10BA10000235AD0064196360CCE7C046C82300203E
:10BA2000647202000C040000F0B55746DE464E4634
:10BA30004546E0B583B098466B46DF1D0023324C87
:10BA40008346380091463B708A46A66800F02EFB7C
:10BA5000A26863682568D31801335B1B062B20D8C6
:10BA6000012B14D92921294B9B02194313002B4088
:10BA700002339B00E3185960254BA91CE358216051
:10BA80000135154098470235AD006419606038787B
:10BA900000F02CFB03B03CBC90469946A246AB4656
:10BAA000F0BD6B1D3878236000F020FB5B4607215A
:10BAB000C12219405346C90011439B0219432B0070
:10BAC000334002339B00E3185960114B6F1CE3585D
:10BAD00098474A46AB1C3740334002370233BF0019
:10BAE0009B00E318E71978605A604246EB1C33402C
:10BAF000023304359B003540E31802355A60AD002F
:10BB00000C9B64196360C5E7C823002064720200BF
:10BB10000C040000F0B54E464546DE465746E0B5FB
:10BB20006B4D8DB06E682B68B34200D1A3E0AB685B
:10BB3000771C1E409B46B31C9B00EB185C680323DC
:10BB4000E0B2034011D103225946A60D2404A40DEE
:10BB50003619F619771C0E40B31C9B00EB185C6875
:10BB60001300E0B20340F0D08B467A1C90460021CF
:10BB7000420736D5022B3BD0A30A9C46A3051B0FD8
:10BB800000D17AE05A1CD21906A89A4646461300FC
:10BB9000814607005A4630001040023080002818C5
:10BBA0004068013601C79E42F5D15346D044009308
:10BBB0008223A006DB00EC58400F4B466246A047AC
:10BBC000002855D16B68984643462868C01A431E22
:10BBD0009841C0B20DB03CBC90469946A246AB46D7
:10BBE000F0BD59463940033189006918022BC3D191
:10BBF00043465A465846134002339B00EB185B6895
:10BC000002370493A30D984623049B0DB843059374
:10BC1000431C9B009C462F482B58A0069946400F7A
:10BC2000E0452DD8002303930293434601935B46DE
:10BC30003B409B4603239C46E3445B469B009B465C
:10BC4000AB445B46049A0093059BC84740450BD024
:10BC5000214B800502361C40000CB6006B68044383
:10BC6000AE1974609846AFE7033080088046B84448
:10BC700043466B60A8E70020ACE706AA914696E72A
:10BC80004346DBB21A006346002B1AD05B463B40AA
:10BC90009B4603239A46D3445B469B009B466346E0
:10BCA000DBB29C46130062469B1ADBB29A460C2319
:10BCB0009C46AB44AC4453460393634601920293C3
:10BCC000BFE700239A469C460C339B46AB44F2E701
:10BCD000C8230020140400003F00FFFFF0B54646D3
:10BCE000D6464F46C0B5224B98461B78002B39D01C
:10BCF000204B00249946204B204F01269A4605E010
:10BD0000434601341B78E4B2A3422BD94B461B684F
:10BD100032009C46E500654428783B6882401A4220
:10BD2000EED093433B6002F003F932002B7851468A
:10BD30009A4009680A40010099408A42E0D1697836
:10BD400001394A425141091A484241416A68C9B21F
:10BD5000002AD5D018009047434601341B78E4B23E
:10BD6000A342D3D81CBC90469946A246F0BDC0461B
:10BD7000E027002010280020082800200C280020A0
:10BD8000F8B5134E0500300000F058F9002807D12F
:10BD90000124AC400F4F3B681C4202D0A3433B60E0
:10BDA000F8BD280002F0C4F80B4A136800280BD035
:10BDB000234313603B6800221C43084B3000196882
:10BDC0003C6000F0C7F8EBE7A3431360F2E7C0461E
:10BDD000E82700200C28002008280020E427002065
:10BDE000F0B54746CE4680B50D00070083B014007D
:10BDF0000720042A2CD901F0B3FF002833D01C4BB4
:10BE00001C4A1F601C4B1D701C4B1C6000231360E0
:10BE10001B4A6C1E1360E4B2002D1ED0194BE400C7
:10BE2000994603233C1901AD083F9846002602E0DD
:10BE3000083CBC4211D043462B70A37820784A4678
:10BE40002900AE70EE706B7001F094FF0028EFD007
:10BE500003B00CBC90469946F0BD0B4A00210B483C
:10BE600000F04AF8F4E701F047FF0028C7D0EFE7F9
:10BE70001028002008280020E0270020E4270020C8
:10BE80000C28002081BD0100DDBC010070720200A1
:10BE900070B5094D2B78002B0BD00024074E32686B
:10BEA000E300985C012101F0E5FF2B780134A34207
:10BEB000F5D8002070BDC046E027002010280020E3
:10BEC000002300B585B001AA9060002103481380CB
:10BED000536002F0CDFD05B000BDC046014000003A
:10BEE00010B505F0E7FD037B002B03D002688368E3
:10BEF0001000984710BDC04670B50E0082B0151EE8
:10BF0000046821D0237B0820002B02D16368002B1A
:10BF100001D002B070BD102200212000FFF780F98F
:10BF20003200FA21094BA560561EB24100938900E8
:10BF30002300074805F054FC6060431E98410D2320
:10BF4000404298430E30E4E70720E2E7E1BE0100FB
:10BF500074720200F0B54746CE46A12380B51700A3
:10BF6000334ADB00D35846689846324B85B005000B
:10BF700089461C68002E59D0037B002B36D14B46D6
:10BF8000414663430131480818180AF02FFC2F601E
:10BF9000EFF30583002B10D000240200009403ABC4
:10BFA00009213000039405F03BFC012826D0042031
:10BFB00005B00CBC90469946F0BD022402000094E6
:10BFC00000230421300005F02BFC0128EFD105F0FF
:10BFD0004FF90094020000230121300005F020FCFD
:10BFE0000128E4D1012300202B73E1E7300005F0A4
:10BFF00055FD03000020002BC1D0D9E705F03EF924
:10C000000094020003AB0621300005F009FC012872
:10C01000CDD1039B002BE5D08022074B52055A60FF
:10C0200040BFBFF34F8FBFF36F8FDBE70820BFE741
:10C03000001001401428002000ED00E010B5436816
:10C0400084B00400002B2CD0EFF30583002B0FD11C
:10C050000223002200930321002305F0E1FB0300EB
:10C060000420012B02D100230020237304B010BD53
:10C070000023002203930093082103AB05F0D0FBBB
:10C0800001280CD1039B002BEDD08022064B5205DA
:10C090005A6040BFBFF34F8FBFF36F8FE3E70420B9
:10C0A000E4E70820E2E7C04600ED00E0F0B5EFF37A
:10C0B000108172B60A4B5A68002A0DD101248025DE
:10C0C000084E5C607459084F3C401C607751027008
:10C0D000002900D162B6F0BD01230370F8E7C04625
:10C0E0006463002000E100E0FC06FFBC10B5084BD3
:10C0F0005A68002A0BD0002809D1EFF3108272B6DB
:10C1000004491C680C605860002A00D162B610BD5A
:10C110006463002000E100E070B5002A16D01268C8
:10C12000D243002910D001250A4E41180824037873
:10C1300053405A081D4200D07240013C1300002CAD
:10C14000F7D101308842F1D1D04370BD0122524273
:10C15000E7E7C0462083B8ED8023F0B54646D646D3
:10C160004F4690460222DB00C5180300C0B50A8086
:10C170008268083301322FD01A4A0224914612688D
:10C18000002792460022184E944614E01888002892
:10C1900014D09868504502D90122824694465888A6
:10C1A000033082002418A4B29B180C809D4207D94A
:10C1B0001A68013204D09888B042E7D10127EEE72F
:10C1C0006346002B0AD14346002B00D01F701CBCD5
:10C1D00090469946A246F0BD0027F4E74B465246EA
:10C1E0001A60F0E7A0280020FFFF0000033083B2B0
:10C1F00030B5FD2B16D8134A1078002806D11089C7
:10C2000054890019181880B2FF280DD9147C072012
:10C21000002C06D1148B558B64191C19A4B2FF2C69
:10C220000CD930BD0920FCE70024002000010C805F
:10C23000121850891B1853810020F2E70124063898
:10C24000F4E7C0461C29002010B5020115480B6810
:10C2500080184068002B21D05A88033292009B1826
:10C260008022D20094466044834215D21A6801327B
:10C2700012D00D4C9A88A24205D01A88002A02D00A
:10C2800001200B6010BD5A88033292009B18834234
:10C2900002D21A680132EDD10020F3E7030008331F
:10C2A000DEE7C0461C290020FFFF0000F0B5D6469F
:10C2B0004F464646C0B5264F92467E6F0024032E59
:10C2C0003FD80825234B6D1A98465B6C9946AB42C4
:10C2D00037D83C6FA446B444032465462540EC009F
:10C2E000641BA4003C192CC82CC42CC82CC40068A6
:10C2F000013620607E670124002922D04346186C55
:10C3000007234646524648440340DB00CC003836FB
:10C3100043441419B44603E008320300A24209D092
:10C320001800170060CF60C06345F5D1083243465E
:10C33000A242F5D143465B6C01249C4643466144CE
:10C34000596420001CBC90469946A246F0BDC046E8
:10C35000A42800204428002010B50A4C0A48A388CD
:10C360002168032442689B00C91853880470002088
:10C3700082B0033300909BB2044801F097F802B0FA
:10C3800010BDC0463C29002090280020F822002043
:10C3900070B5436882B004000D00002B20D0254A00
:10C3A00011688B421CD35268934219D89A0717D14F
:10C3B000214A01891289914212D1226899688A42E0
:10C3C0000ED11E494A68934227D98020C000844676
:10C3D0006244934221D2002301202B8002B070BD21
:10C3E000002300262B80019605E0019B21689A68B6
:10C3F0008A420DD02B8801A91800FFF725FF0028DD
:10C40000F3D12B8801339BB22B80012BEBD9E5E7CD
:10C410006360094B1B892381E0E74A69002093424E
:10C42000DCD98021C9008C4662449342D6D20123D4
:10C43000D2E7C046F8220020902800201C290020C6
:10C44000F0B5C64600B5050098880E0017001C0020
:10C4500001280BD8194B984642460301D35C002BA8
:10C4600006D0013080B2A0800128F5D90A2022E050
:10C470002100FFF7E9FE002812D02368002D03D029
:10C4800099882A88914205D1002E0CD019883288CB
:10C49000914208D0A0882100FFF7D6FE0028ECD1F9
:10C4A0002060A088DDE700209B683B6023687B60FC
:10C4B000034B1B893B8104BC9046F0BD1C29002026
:10C4C0009028002010B5074C2478A40708D5002A2E
:10C4D00004D0002B02D0FFF7B3FF10BD0520FCE70E
:10C4E0000220FAE78C28002010B50E4C0E4B628813
:10C4F00012019B189A89002A0BD00523022223706F
:10C500000A4B0B489A801968013A002301F028F879
:10C5100010BD596801320023054801F021F80423B9
:10C520002370F5E7902800201C2900203C290020DA
:10C53000F822002010B5064B191D5888FFF784FE1D
:10C54000002802D1FFF7D0FF10BDFFF705FFFBE782
:10C5500090280020F0B557464E464546DE46E0B5E9
:10C56000C94C8BB0266F8146F3009F1BBF009846D5
:10C57000E3199A46E35D062B28D8C4499A008A58E5
:10C580009746002800D088E0C14A107B1178002827
:10C5900000D17BE248461073072917D8BD488900AF
:10C5A00041588F46002878D14246921B920093460C
:10C5B000A34402925A4612790392012A00D1B1E2B1
:10C5C000002A00D194E2022A00D120E10F2705AD14
:10C5D000524612786F60023A012A08D85246917D7D
:10C5E000AD4A106C40181064506C411A5164062B0F
:10C5F0006ED8AA4A9B00D3589F464246A849921B30
:10C600008B469200A218558A2D015D4400284FD117
:10C61000686829898146127C89008944062A00D9E4
:10C620002AE3A04992008A589746002838D15246FA
:10C630001579012D00D1AEE0002D00D18CE2022D44
:10C6400000D1E8E0032D20D1974D00900223974AB6
:10C650002968974800F02AFF8D4B914A5B882F6824
:10C660001B019446D21851685760AF882960178122
:10C6700002226146AA804A465A5453461A7100283B
:10C680004BD043469B1B9B00E35C012089490E274E
:10C690000A7805AD82430A709AE7012705AD97E74E
:10C6A0000120844901270A7805AD82430A708FE78B
:10C6B000D1882889CA1C801803225242511A6A89DB
:10C6C000288152186A81012705AD81E705232B7067
:10C6D000794E370020373368002B01D02800984767
:10C6E0000436B742F7D1236F1C22D800C01A80004D
:10C6F00020180021FEF794FD636F002B08D0226FF5
:10C70000013B511C03220A4022676367002B58D16A
:10C710000421684A13788B4313700BB03CBC9046DD
:10C720009946A246AB46F0BD04232B7043469E1BA0
:10C73000B600A619F388AB810023EB81C8E7032379
:10C740002B7043469E1BB600A619F388AB81338934
:10C75000EB81F368AB60BBE702232B7043469E1B63
:10C76000B600A6193389AB81B388EB81F368AB605F
:10C77000337C063B5A4253412B74A9E701232B70AB
:10C7800043469E1BB600A6193389AB81B388EB8163
:10C79000F368AB609CE7424B9B461B78022B00D1B1
:10C7A00042E25B461B7C022B00D12EE20221414A71
:10C7B00013780B43AB4305AD1370686000232B70F7
:10C7C00086E70020FFF7C6FEA7E7937A002B09D083
:10C7D0000023334993728B89002B03D1897B002975
:10C7E00000D028E2D37A002B09D00023D3722C4B3F
:10C7F000998B002903D19B7F002B00D01AE20023E4
:10C8000013705380536043469B1B9B00E35C05AD54
:10C8100000226A60EBE6244F002301223968244895
:10C8200000F09EFE53464A46BD801A7127E7FFF787
:10C830005BFE0700002F00D16FE743469B1B9B0068
:10C84000E35C05AD1D4A9742E2D0C1E6FFF784FDE7
:10C850000700EFE71A4B1B4A1F881B4B1448596807
:10C8600000230093013300F021FE002800D0A5E151
:10C8700001233F015F44BB7343469E1B0623B60062
:10C88000A419237449E7C046A42800207872020046
:10C89000902800209472020044280020B472020004
:10C8A0001C290020D07202003C2900206073020085
:10C8B000F82200208C280020242800201D1D0000C4
:10C8C000462900205C730200182800200023DC4861
:10C8D000DC49436043469B1B9B009B46A344029359
:10C8E0005B469B690360FFF753FD002800D187E199
:10C8F00000233A1DA218009349460133D24800F0A4
:10C90000D5FD02235A461374002800D105E7029B87
:10C91000E35C0E274AE03A00002349460832A21899
:10C9200004310093C848013300F0C0FD43469A1B10
:10C930009200A35CA218D91E4F1EB9410531117493
:10C94000002800D1E9E6E4E7C04A536C002B00D18F
:10C9500028E10720116C013B4F1C3840C9001064CE
:10C96000536453188A58414600209B468F1BBF00D2
:10C97000E719B98A9B88890000904944B24800F0C1
:10C9800095FD5A46BB8A92889B18BB82BB7D013BB2
:10C99000DBB2BB75002B01D101333B74002800D101
:10C9A000BBE643460E279B1B9B00E35C4246921B63
:10C9B0009200A218D1882889CA1C801803225242EA
:10C9C000511A6A89288152186A8105AD3AE7A04F49
:10C9D000ECE73A00002349460C320831A2180093D4
:10C9E0009948013300F062FD43469A1B9200A71854
:10C9F000BB7D59424B4101215B428B4303333B7466
:10CA0000002800D189E6A35C0E27CFE700233A1D5A
:10CA1000A2180093494601338B4800F047FD434676
:10CA200002219B1B9B00E2181174002800D174E6C0
:10CA3000E35C6EE78748536881885B8803315B1845
:10CA4000838002231370FFF775FD0700F2E60723CA
:10CA50001370002353607F4A7B48116800937E4A1D
:10CA6000023300F023FD0700E4E67C4953888B463F
:10CA70001B0106215B44117059680023784A00931A
:10CA80007148023300F012FD0700D3E6072900D9F0
:10CA90009CE5744D88002D58AF4601231370937A9E
:10CAA00094E653886B496D480D681B018346C01896
:10CAB000476845608D880F60058102208880D8E72F
:10CAC0001389664901331381002313730B7858428D
:10CAD0004341DBB29372097C48424141D17201214A
:10CAE000117073E6072900D970E55F4909588F4630
:10CAF0000822002106A8FEF793FB5B46DB6802AA2A
:10CB0000059394460A2305AD634419002800FFF7F6
:10CB10003FFC00282CD102235A461371029B0A279E
:10CB2000E35C55E5514B1B789B073DD5504BB81D39
:10CB300005AD20182A0000219B46FFF781FC071E47
:10CB400044D0082200215846FEF76AFB029BE35CB2
:10CB50000A2F00D076E65BE63E4B3F4A196800900C
:10CB60000223394800F0A2FC01235246137186E5E6
:10CB70005A46696834488B88D3800B88138102AB8E
:10CB80005F894B463B4A0093012300F08FFC00284D
:10CB90002FD1324B3F01DF1901235A46BB730133BA
:10CBA0001371BAE51B68FFDE082200213048FEF74A
:10CBB00037FB029B0227E35C05AD09E543460621EE
:10CBC0009B1B9B00E2181174E35CA2E65B469F8806
:10CBD0004B460093274A012369681B4800F066FC16
:10CBE000002823D11D4B3F01DF196B461B7BBB7314
:10CBF00093E502235A461371029B0E27E35CE7E498
:10CC0000029B0A27E35C05ADE2E401255B460027B1
:10CC10002D015B195968124A022300970A4800F057
:10CC200045FC5B465F552AE50025EFE7029B0E2792
:10CC3000E35CCDE401235380FFF77CFC0700F9E5BA
:10CC40001828002046290020F8220020442800202F
:10CC50001D1D00003C290020687302001C290020D3
:10CC600060730200EC7202000C7302008C2800203A
:10CC7000482900205C7302000F2797E610B50800D2
:10CC8000FFF768FC10BDC046F0B5454657464E4616
:10CC9000DE46E0B55F4E8BB0357807000C00984655
:10CCA000AB0700D478E0002900D17BE00B889B46DD
:10CCB000594B9B4566D04B880093002B62D04B6844
:10CCC00009899C46002900D19EE01B689B0766D11C
:10CCD00000236046994603339A4608304B46019438
:10CCE000914604E0544602680830224257D101338D
:10CCF0009942F7D84A46019C002A63D002ACA1466B
:10CD00000220138848440380528882469146424656
:10CD100003AC227000226382032322743F4AA38261
:10CD20001368A17501331360E3605B4623816B4692
:10CD30001B88A3804B46E3804346032B03D101337A
:10CD400023743B68A36100236246200098466381F8
:10CD5000FFF7ACFA002828D0002F08D043467B60AC
:10CD6000E3683B600023BB722D4B1B893B81002392
:10CD70009B466B0708D4042300201D433570FFF742
:10CD8000E9FB01E004239B4658460BB03CBC9046AF
:10CD90009946A246AB46F0BD02239B46F4E7032327
:10CDA0009B46F1E705239B46EEE7534649461B8821
:10CDB0001C4A1B01D2185389033B5B1A5381082379
:10CDC0009B46E1E7624600230432C90051181088EF
:10CDD00008321B189BB28A42F9D102AA994694469E
:10CDE00002236344190048469A46FFF7FFF9834639
:10CDF0000028C9D1534622882189934662881B881E
:10CE000000926268944682E7002A00D076E7002309
:10CE1000E3E7C0468C280020FFFF0000A028002088
:10CE2000902800201C29002010B5064A1378082BF2
:10CE300006D005499C00605000200133137010BDDE
:10CE40000C20FCE74429002024280020F0B5DE4611
:10CE5000454657464E46E0B58FB01422002102A841
:10CE6000FEF7DEF96C4D2B789A0712D56B4C250036
:10CE700020352368002B01D002A898470434AC4227
:10CE8000F7D100200FB03CBC90469946A246AB4675
:10CE9000F0BD01241C42F4D1012213432B7000F099
:10CEA000A3FA02AB1C75002301935D4B0026984644
:10CEB0005C4B002799465C4B00249A4643461B680E
:10CEC00098190268594B9A421BD1436858498B42C2
:10CED0005BD058498B4214D1019B002B6FD1524B30
:10CEE0009B465946002201C1FFF736F95B469B88F5
:10CEF000023B5A1E934104225B42134004331F43FA
:10CF00000FE08021C900031D411802E0994229D099
:10CF100004CB0132FAD003224946631C2401625437
:10CF20009CB28023DB009C46C02366441B019E42CA
:10CF3000C4D1FFB20B2F06D83F4BBF00DB599F4631
:10CF4000002302AA13760022002107A8FFF7AEF9FA
:10CF50002B785A0795D40422002013432B70FFF737
:10CF6000F9FA8EE753461B68002B20D02D49022288
:10CF70008C4623015A54634458601A812F4B5C80BD
:10CF80000134A4B201231F43CBE70022254923012A
:10CF90005A54CA1850601A0008330E328A18C91839
:10CFA000FFF7DAF8022301341F43A4B2B9E753466E
:10CFB0005246186002239380013B0193E2E702226C
:10CFC000184B2101CA545B18174901348B46096874
:10CFD0001A815960A4B284E70B2053E7022302AA06
:10CFE0001376B0E7032302AA1376ACE702222B786C
:10CFF0000A4C1343012293432B70250020352368EC
:10D00000002B01D002A898470434AC42F7D138E78E
:10D01000012302AA137696E78C28002024280020FA
:10D02000F82200201C2900203C290020DEC0ADDEB3
:10D03000FE011EF1FF011EF12C730200902800205A
:10D0400030B5040083B00D00002819D0002917D096
:10D050006B46991DFFF79CF9002813D06B46DA88C0
:10D06000094B12019B189A89616801329A812960E3
:10D07000636800200C336B600123A37203B030BDE2
:10D080000520FBE70A20F9E71C29002010B5040061
:10D0900082B0002819D06B46991DFFF779F9002856
:10D0A00011D06B46DA880B4B12019B189A89002A23
:10D0B0000DD0A17A00290AD0013A9A8100230020DC
:10D0C000A37202B010BD0A20FBE70520F9E7062095
:10D0D000F7E7C0461C29002030B50D4B83B01B7804
:10D0E00004000D009B070ED500280ED06B462800CB
:10D0F000991DFFF77BF8002803D16B46DB8865801C
:10D10000238003B030BD0220FBE70520F9E7C046CD
:10D110008C28002010B50F4B1B789B0716D50028D4
:10D1200016D00388022B0FD80B4A1B01D218538943
:10D1300041885C1A032C07D42300033B538100234E
:10D1400003804380002010BD0420FCE70220FAE7A2
:10D150000520F8E78C2800201C29002010B50223A8
:10D160000022FFF791FD10BD10B5002A03D0022365
:10D17000FFF78AFD10BD0520FCE7C04610B500286A
:10D1800004D003230022FFF77FFD10BD0520FCE73C
:10D1900070B5184C2278930720D5174B984226D0AB
:10D1A000164D696F032917D8154B5B6C082B13D8E4
:10D1B0002B6FCE1803231E40F3009B1B05269B00FC
:10D1C000EB181E700131043E1E71D880696700257E
:10D1D000530705D5280070BD0825FBE70225F9E7B0
:10D1E000042300201A432270FFF7B4F9F2E7042564
:10D1F000F0E7C0468C280020FFFF0000A428002094
:10D200004428002070B516480278930725D51549A3
:10D210004B6F032B1ED8144C646C082C1AD80C6F5F
:10D220001D1903242540EC00641B06250133A400CE
:10D2300065544B670D4B1978002901D001211973F2
:10D240000024530707D404231A4302700020FFF779
:10D2500081F900E00824200070BD0224FBE7C046ED
:10D260008C280020A428002044280020902800209A
:10D2700030B583B00C0069460500881D01A9058002
:10D280000C80FFF71FF903B030BDC04610B582B067
:10D2900013006A460C00911D088022000020FFF751
:10D2A00011F902B010BDC04610B582B013006A4635
:10D2B0000400901D0A0000210480FFF703F902B06A
:10D2C00010BDC046002805D0002903D00368002007
:10D2D0000B6070470520FCE729DF704728DF7047A7
:10D2E00070B50D4B05005A6E042A13D0196E5418F0
:10D2F000032C0DD801325A6662001419E4001C197F
:10D30000182200212000FDF78BFF01202C6070BD4A
:10D31000043CEFE70020FAE75429002030B5040070
:10D3200085B00D00102200216846FDF779FF237AB1
:10D33000012B13D0022B08D101236A4669461370D2
:10D34000A289E3894A81D31A0B816368290001937A
:10D35000236868469B68984705B030BD00236A463D
:10D36000137023690293A38A9381EEE770B51C4B77
:10D370005A6E002A10D01D6E69004C19E4001C1969
:10D38000227A012A09D0022A21D1A089FFF7A6FF1B
:10D39000112814D000281AD170BDA28AE08A121A6E
:10D3A000FF2A19DC92B24919C9005B18D9681B69B8
:10D3B000800009181818FFF78FFF1128EAD1022101
:10D3C000084A13788B4304210B431370E4E70921C7
:10D3D0002000FFF7A3FFDFE780225200E3E7C0460B
:10D3E0005429002050290020F0B5D6464F46464625
:10D3F000C0B52A4B5D696B1C03D180235B055D6959
:10D40000AD02274B99461B789846DB0740D4254B45
:10D41000254C9C46E41A240934D0A24621016144DB
:10D420001A68002A05D05A68501E82415046821A56
:10D43000924610339942F3D15346002B22D0002656
:10D44000F1B263460022002703E001321033944218
:10D450000ED01868002802D058680028F5D1587BF3
:10D46000B842F2D9D1B20132070010339442F0D160
:10D470000B0163441A7B5D609202AD1A01361D6098
:10D48000B245DDD1012342461A4313004A461370C8
:10D4900000201CBC90469946A246F0BD001000102A
:10D4A00050290020F822002018230020F0B547461C
:10D4B000CE4680B5274E9946337883B005000F00DD
:10D4C00090460124DB0737D500283BD0224B9842F9
:10D4D00038D3224B984235D2131E35D0002933D091
:10D4E0000B4305349B0727D103688B422ED84B464C
:10D4F00042689B00CB189A4228D34B46023C002B33
:10D500001AD001A8FFF7ECFE002821D0019B0A9A4F
:10D510001D605A600122019B00241A724246DA60A3
:10D520004A469A8206221F6133781A4204D10222A7
:10D5300013433370FFF71AFF200003B00CBC904672
:10D540009946F0BD0224F7E70324F5E70524F3E745
:10D550000724F1E750290020F8220020182300209A
:10D56000F0B54746CE4680B5254E9946337883B010
:10D5700005000F0090460124DB0731D5002835D087
:10D58000204B984232D3204B98422FD2002933D0DF
:10D590008B052FD103688B422AD893024268CB189F
:10D5A0009A4225D343460334002B19D001A8FFF734
:10D5B00097FE002822D04A46019BBF0A5A600222E9
:10D5C0001D60019B00241A7242461A8206229F8126
:10D5D00033781A4204D1022213433370FFF7C6FE98
:10D5E000200003B00CBC90469946F0BD0224F7E73A
:10D5F0000524F5E70624F3E70324F1E70724EFE722
:10D6000050290020F822002018230020002804D0F0
:10D61000034B5B6E0360002070470320FCE7C046AD
:10D620005429002070B50225344C23781D4213D0B4
:10D63000334E326E53009B18DB00F318022818D0CB
:10D64000032806D12F490A780132D2B2032A24D8FE
:10D650000A70FFF78BFE70BD04221A42F9D0934383
:10D66000274A2370526E002AF3D0022213432370FC
:10D67000EFE70021234A1D7A1170012D23D0022DDE
:10D68000E7D19A89198A01329A81DA89013292B2F4
:10D69000DA819142DDD1002102E000220A700821E6
:10D6A0001800FFF73BFE736E013B7366002B02D13F
:10D6B0002378AB432370336E01333366042BC8D118
:10D6C00000233366C5E7998ADA8A881AFF280EDCB8
:10D6D000D98218000021FFF721FE736E013B7366AB
:10D6E000002BE8D10222237893432370E3E7013231
:10D6F000FF3292B2DA828A42ABD1EAE750290020A7
:10D7000054290020BC290020034B586E04384342A2
:10D710005841C0B27047C0465429002070B504ACCF
:10D720002678002405889D4204D001340230082C5C
:10D73000F8D170BD002AFCD00120A040C0B2C44383
:10D740008A18E4B204E003430B7001318A42F0D03E
:10D750000B78002EF7D123400B70F6E710B50023AD
:10D76000012402001A4199B2144203D10133082B5B
:10D77000F7D10149080010BDFFFF000000B583B0DC
:10D78000002806D0002904D0009313000122FFF7DF
:10D79000C5FF03B000BDC04610B582B004AC24780C
:10D7A000002806D0002904D0002A02D00094FFF7F8
:10D7B000B5FF02B010BDC04610B5002807D0002349
:10D7C0000488944205D001330230082BF8D10020A0
:10D7D00010BD194101200840FAE7C046F0B5002508
:10D7E00000290ED00023012614001C41264205D03A
:10D7F0005F006C00CF5B0419A78001350133082B53
:10D80000F2D10560F0BDC0460023C0B288724B72F1
:10D810007047C046F0B5C646012700B5027AC36816
:10D82000D2B29B68D5005B195C7984B001A9640809
:10D830004C701C684C601C798C709C79274214D009
:10D840005C79A0463C004646344011D000220C7062
:10D850008A60CA709B7920325B011A40103000F058
:10D86000E5FF04B004BC9046F0BD5C793C40EDE7B8
:10D87000C6680132367BB242E8DA4646C2680835ED
:10D88000926876085219527952089642DED1C368DE
:10D8900020229B685D192B688B602B79CB706B798C
:10D8A0001F407B425F4102370F70AB795B011A402A
:10D8B000037A0133DBB20372D0E7C046F0B5C64647
:10D8C00000B582B06B46DC1D0023050020000E0071
:10D8D0002370FEF7EBFB002E41D1EB682078002B84
:10D8E00030D100230026984622E0296837008C4674
:10D8F0009A006244116801332A79DBB29A42774177
:10D900007A4213406B71E960EB68002B1AD0FEF786
:10D91000EDFB2E722800FFF77DFF002814D0EB6886
:10D920001B68002B14D120002370FEF7BFFB20786A
:10D930006B79AA79DBB29342D7D10021E960EB6819
:10D94000002BE4D1FEF7D2FB02B004BC9046F0BD40
:10D95000EA68EB6851681B6898474346E3E720781C
:10D96000BFE7C04610B503780C00002B15D10B7A29
:10D97000CA680133127BDBB200209A420FD8E368F9
:10D980001B68002B04D0E268E36851681B68984765
:10D9900001212000FFF792FF10BD0320EFE70B727B
:10D9A0000800FFF737FF0028E9D1F5E7F0B50600DA
:10D9B000C646103600B50400170098460A4A030010
:10D9C000300000F02FFE051E09D1300000F01CFFD2
:10D9D000434665712360A57127716572E560280073
:10D9E00004BC9046F0BDC04665D9010030B583B097
:10D9F0006A4604000023D01DD3710D00FEF756FBCC
:10DA0000A3792279DBB29A421CD06279013A93421F
:10DA10001BD021689A008C4662441560002221794F
:10DA20000133DBB29942524152421340A3716B461B
:10DA3000D879FEF75BFB20000021FFF73FFF0020B5
:10DA400003B030BD6279002ADFD16B46D879FEF78A
:10DA50004DFB1120F4E7C046F0B585B00400160078
:10DA60001D006A460023684613700F00FEF71EFB78
:10DA7000637A002B06D06B461878FEF737FB11202F
:10DA800005B0F0BD012363726B461878FEF72EFBDC
:10DA90000B4B694600936B462000019402971E735E
:10DAA000FFF7A4FF0028EBD101E0002D05D1637A38
:10DAB000002BFAD1A07AC0B2E2E7A847F7E7C04648
:10DAC00009D80100002310B50D4C6360A3602361E9
:10DAD000E3600C4B1B68DB070CD508F0B1F900289C
:10DAE00004D18022A323D205DB00D05001230020E3
:10DAF000237010BD0321002000F0CAF8EDE7C046F6
:10DB0000C029002000E100E010B5044B1B78002B79
:10DB100002D1FFF7D7FF10BD8520FCE7C029002008
:10DB200070B5234C82B0A3780500DBB2002B13D074
:10DB3000002802D04368012098476B46DD1D002372
:10DB400028002B70FEF7B2FAE36828780133E3600F
:10DB5000FEF7CCFA02B070BD6A46D61D30003370B5
:10DB6000FEF7A4FA002D0DD02269002A08D09542B4
:10DB700008D0130001E09D4204D01B68002BFAD1AD
:10DB80002A602561E368002B0AD10A4A022113604A
:10DB9000C123053AFF3A9B00D1500122064B1A607F
:10DBA000E36830780133E360FEF7A0FAD2E7C046BD
:10DBB000C0290020040100400800004010B51A4BA5
:10DBC0001A68002A14D0002280211A60C222012380
:10DBD000164CC90592008B506370A368002B07D0C8
:10DBE0001A6800205B68A2609847A368002BF7D1F1
:10DBF0000F4B1A68002A15D000221A608022C22317
:10DC000002219B00D205D1500123084CA370236947
:10DC1000002B07D01A6801205B68226198472369AE
:10DC2000002BF7D110BDC04600010040C0290020E4
:10DC30000401004010B500280BD1064CA368002B4E
:10DC400007D01A6800205B68A2609847A368002B81
:10DC5000F7D110BDC029002030B583B06B46DD1D63
:10DC6000002328002B70FEF721FA084C2378002BA4
:10DC700001D1FFF727FFE36828780133E360012330
:10DC8000A370FEF733FA03B030BDC046C0290020B0
:10DC9000FF22032330B51400C5B22B40DB009C40AB
:10DCA00089010A40E4439A40002814DB104B8008A5
:10DCB0009C46C023800060449B00C1580C40224316
:10DCC000C2501F23C0211D401E3BAB40084A4900E3
:10DCD0005350136030BD0F2306492B408C46083B40
:10DCE0009B089B006344D9690C402243DA61E8E752
:10DCF00000E100E000ED00E0442310B5154CE35CCA
:10DD0000002B25D123002100FF22203340311A703F
:10DD100001338B42FBD101235B42236403210620A4
:10DD200023606360A360E36023616361A361E361D7
:10DD3000FFF7AEFF0022084B80211A60C123074A7B
:10DD40009B000906D150442301220020E25410BD5B
:10DD50000820FCE7D42900207C61004000600040DE
:10DD60004423034AD05C431E9841C0B27047C0466A
:10DD7000D4290020F0B53C4D94462B1820331E7852
:10DD800008247F2E12D9CF78002F11D12A690132B1
:10DD900064D0042308269C002C1903E00434226874
:10DDA00001320BD00133B342F8D304242000F0BD7C
:10DDB0002A6801324DD000230426ECE762462E1873
:10DDC00020365CB234709E00AA51002F02D1EB18AD
:10DDD0003C3318708B78002B16D0A022D2059446C5
:10DDE000E026022783006344F6009A59BA439A5109
:10DDF000CA780B78002A14D12D193C352A789B015A
:10DE000013432B700024D1E70300A0264A78C133C6
:10DE1000FF3392009B00F6059A51CA780B78002ACE
:10DE2000EAD0124AA5009446A2226544D200A9581D
:10DE30000F4C00022140F82464012040C024A95066
:10DE4000A4021B04A958234018430843A8500024E7
:10DE5000ACE700241C7063462B60BBE704241C70F5
:10DE600063462B612300B2E7D42900200060004004
:10DE7000FFE0FCFF0023F0B52A4C22182032D356D5
:10DE8000032B1FDDE3183C331B789B09032B3AD08F
:10DE9000013B5A1E934180225B4252021340802272
:10DEA000920294466344A022D2059446E022800068
:10DEB0006044D20081581C4C2140815081580B4352
:10DEC0008350F0BDD8B20328FBD8184DA227AC462A
:10DED000012698006044FF00C5593543C55118001C
:10DEE000654600274030800080B247510029E8D0C5
:10DEF000127852B292001259002AE2D09E40C123F9
:10DF00009B00EE50DDE7A022A223D205DB00D25811
:10DF10000123C2401340C02292029446013B1B04DD
:10DF20006344C0E7D4290020FFFFFCFF00600040ED
:10DF3000A022A223D205DB00D358C3400120184001
:10DF40007047C046F0B557464E464546DE4600236C
:10DF5000C124E0B501220025002787B00393684E55
:10DF6000684B6949A400186801282FD00433520077
:10DF70008B42F8D1654B1A68012A2DD02B071CD093
:10DF80001F239946624BA227012600249846FF00D2
:10DF90002E420ED049465A4AA3009A18D059000A78
:10DFA0000840D1594246D3588903890F002B00D02D
:10DFB000984701347600042CEAD1002D18DB07B015
:10DFC0003CBC90469946A246AB46F0BD3059024251
:10DFD000CCD01F601543C9E700221A6080231B06BE
:10DFE0001D43A022A223D205DB00D3580393C5E72B
:10DFF00000230493013B0593C1339846444D00230D
:10E000000024019323004033E9564B1C33D0C9B29E
:10E01000434608009843072301270B409F403B00DD
:10E02000C20805AFBF5C3B4225D02F18BC46202755
:10E03000B946CC4467463F7889097FB2BF00EF59A3
:10E04000B946002F33D0032933D08700BA46A02722
:10E05000FF05BC46E027FF00E244BC465746664643
:10E06000BE59B603B60FB44603AEB25C134214D128
:10E070006346032B28D00134042CC3D1019B002B11
:10E080009DD0A022A223D205DB00D358039A93424D
:10E0900095D00393049B0593B1E76346022BEAD125
:10E0A000032928D04B46002BE5D0C847E3E70329D6
:10E0B000E1D104AEB4469444664636781E43B24677
:10E0C000664657463770C0E70329EBD180239B0291
:10E0D0009C46E0235246DB00D2580E4E3240564654
:10E0E000F250F258664632435646F250019B0133D5
:10E0F000DBB20193D6E7C0239B029C46E9E7C0460A
:10E100000060004000610040106100407C61004000
:10E11000D4290020FFFFFCFFC12330B5614A9B00DA
:10E12000D35885B09B055ED592235B00D15800295A
:10E1300059D00021D1508121E533FF338900D150DE
:10E14000594B997E002901D1013151600222694663
:10E150000A7090215348C9004258425069460392C0
:10E16000DA7D68460A72DA68196801920022DA7567
:10E170001A765B6898478E214A4A49005358002B0B
:10E1800012D0494B9C8A987D844257D30024545026
:10E19000002809D06A46107214709A689C75196834
:10E1A00001925B6868469847A2233E4A5B00D158BB
:10E1B000002916D00021D1503B4B997E002901D077
:10E1C00001211160DA7D002A0BD00022684601216E
:10E1D000DA755A7E01700272DA68196801925B681A
:10E1E000984705B030BDC1232E4A9B00D3585B072A
:10E1F000C1D5842149005358002BBCD02A4BD87D6F
:10E20000002827D15050A321C90052585A7E82427B
:10E21000B1D11A7E1968002A2AD0DA751A69D8682D
:10E22000DA6000226D465C7E1A765A7601320190E1
:10E230002A702C725B68684698479CE70020505013
:10E24000998A9868405C998A013189B29982174B02
:10E25000D050A9E700205050A320C000597E12588A
:10E26000D86842545A7ED87D0132D2B25A76CDE770
:10E270009A7E002A02D101200A4A5060C2228124DB
:10E2800008489200A400845000226C460120DA75F0
:10E290005A7E20702272DA68684601925B6898475D
:10E2A00069E7C046002000401C2A00201C05000031
:10E2B00030B5A32383B06A46DB00C358DBB2D37109
:10E2C0000B7F0A7D9A4204D96A460C69D279E254DE
:10E2D0000B7F0133DBB20C7B5A1C0B7794420FD8B7
:10E2E0000D7D954206D80120A34207D3AB429B4146
:10E2F000584203E0CA7E054BC250012003B030BD36
:10E300008B689A5C014BC2500120F7E71C050000A6
:10E310008423002210B50D480D4C5B00C250210033
:10E32000FFF7C6FF002810D1A37EFF2B07D00122E4
:10E330009A40A0211300A122C905D2008B500023CE
:10E34000201D637623712368984710BD004000406C
:10E35000382A0020F0B54546DE4657464E46E0B521
:10E3600009AC25780AAC2478A4460C78002C17D187
:10E370001678B046922676008759B346002F20D0F3
:10E380003300243BFF3B845143610B70A8450FD001
:10E39000012420003CBC90469946A246AB46F0BD05
:10E3A0009222002352008350083A8350143A83503B
:10E3B00082235B00C258002AEAD000220024C25007
:10E3C000E7E78E267600B1468659002E0BD04E46E2
:10E3D00087515E468659002E22D05B46C7500123E6
:10E3E00043610B70D2E7842464000759002FCDD01D
:10E3F00006515C460459002C22D111788D42C5D9B2
:10E40000A324E40004595C5413780133DBB2137085
:10E410006A1E93421DD09D42B8D001230362B5E726
:10E4200011788D4205D86346002B0FD1012343613B
:10E43000ACE7595C094BC150137801331370A5E761
:10E4400001235A46865043610B709FE70123C36145
:10E450009FE7802302229B00C250DEE71C050000DC
:10E46000F0B546464F46D646C0B582B01E000AAB50
:10E470001B78170082229846002352008B502032CE
:10E480008B50083A8B50143A8B50F8328B500C005A
:10E490002321DB3AFF3A8354435401332362A360C0
:10E4A000815C05008E4214D9795C224BE150835C7B
:10E4B000013383542B68002B12D000201E4BAB601D
:10E4C000AA687E33E25002B01CBC90469946A24630
:10E4D000F0BD4246002A29D0E3612B68002BECD125
:10E4E00023239A4603339946AA44A94443460096F7
:10E4F00001934A463B0051462000FFF72BFF0028BE
:10E50000F4D12323EB5C002B12D00C4AA358A35068
:10E51000002B0DD0D8070A4AC017104003309A07C5
:10E5200000D508485B07CED50748CCE76361C1E753
:10E530000020C8E71C05000086020000C40400009B
:10E54000FD8100000182000002820000F0B54F460C
:10E550004646D646C0B5170082221E000023520050
:10E560008B5020328B50083A8B50143A8B50E23A41
:10E570008354033A8354802382B005000C009B002F
:10E58000012E13D00122CA500123236223602B687D
:10E59000002B13D000201E4BAB60AA687E33E250E4
:10E5A00002B01CBC90469946A246F0BD213ACA5022
:10E5B0000123236223602B68002BEBD123239A468F
:10E5C0000333994600239846AA44A944434600963B
:10E5D00001934A463B0051462000FFF7BBFE00284E
:10E5E000F4D12323EB5C002B10D00A4AA358A3508C
:10E5F000002B0BD0D807084AC017104003309A07E9
:10E6000000D506485B07CBD50548C9E70020C7E71A
:10E6100086020000C4040000FD81000001820000A9
:10E6200002820000F0B5574645464E46DE46E0B54C
:10E6300083B0009204791700A0464546AD006B4CAC
:10E64000AA464544ED006219160022363678002E9F
:10E6500000D0C5E05360130025331E70013B966067
:10E6600067511E708B7B273213704B7B002B2FD191
:10E67000A0220B685E4DC133FF33D2059B009D5035
:10E680004B68C133FF339B009D50A12203680E6885
:10E69000D2004D689E50574A9D508D68564A9D50F5
:10E6A000009B002B05D00068097B000B40B2FFF7F0
:10E6B000EFFA53464344DB00E418012300202234E0
:10E6C000237003B03CBC90469946A246AB46F0BDD1
:10E6D000A0230A68464DC132FF32DB059200D550B7
:10E6E0004A68C132FF329200D55001252E000A68D7
:10E6F0009640A122D2009E504E68B5409D500D68B4
:10E700003E4EC135FF35AD00EE504D68C135FF3589
:10E71000AD00EE503A4D04262D68A946394DC0464D
:10E72000C046C046C046C046C046C046C046A945D1
:10E7300000D0C046013EF2D1AC4604250027012698
:10E74000AB460192A225ED004A685D59D5402E42A4
:10E7500000D047E032000D68AA40264D5A515A4673
:10E76000C046C046C046C046C046C046C046C04679
:10E77000E14500D0C046013AF2D132000D68AA400E
:10E78000019D5A515A46C046C046C046C046C04682
:10E79000C046C046C046E14500D0C046013AF2D16D
:10E7A0000137092FCED14A6801231E009640A022CE
:10E7B000104DD20556510425124EC046C046C046E3
:10E7C000C046C046C046C046C046B14500D0C0465F
:10E7D000013DF2D14D68AB40A125ED00535147E713
:10E7E00008206EE7002FDFD142E7C046582A0020FC
:10E7F0000C0600000C050000240500000D060000BA
:10E80000802100200024F400A02302790168052063
:10E81000DB00C85093009A18034BD2009B180222C9
:10E8200022331A707047C046582A0020F0B5DE46E1
:10E8300057464E464546E0B585B093075AD1036822
:10E8400001249A46C223077950469B006442C45073
:10E85000354B9B46BB00DC19E400200003932423C6
:10E86000584498468446E04443461B780290002B67
:10E8700048D1012593089D432B0045462B70082362
:10E880001340984636D10D00029B9A619C460C338A
:10E8900051CD51C38B785046994663464D4620333F
:10E8A0001D7063464D68DD614B789946B1234D4636
:10E8B000DB00C5500B78012B2BD00124002B01D19C
:10E8C00052091440039B6046DB19DB005B44213393
:10E8D0001C708B784A6800945146FFF7C1FD5A4678
:10E8E000039BDB19DB00D258002A04D15B4424339C
:10E8F0001A7000E0062005B03CBC90469946A2463E
:10E90000AB46F0BDC123514682689B00CA5011201E
:10E91000F1E702984246030021331A708B784A6867
:10E920005146FFF713FEDAE7582A0020F0B52126FA
:10E9300020272D4C87B022002100A35D2B4D019391
:10E94000E35D263200932331E3692800FFF702FDDF
:10E9500000281AD1A3699C462323E35C002B16D11F
:10E96000207B831E012B25D9220003AB0C3262CA07
:10E9700062C3002302A8037024230022E2546346EA
:10E980005B0702D461682368984707B0F0BD220096
:10E9900003AB0C32C2CAC2C3154A02A8AB58AB5073
:10E9A00002221A4203D15B07E6D50270E4E7012395
:10E9B0000370E1E7E36922699342D5D16146E37BC5
:10E9C00062698906C90FE261E355A155032804D0A5
:10E9D00029002000FFF7BAFDD7E7009120002900A9
:10E9E000FFF73EFDD1E7C046582A00200030004026
:10E9F000C404000048DF704710B5FFF7FBFF002894
:10EA000001D0FDF75DFA10BDA0230321124ADB05FA
:10EA100010B580209950A1220002D2009850E82021
:10EA2000C00019508020400298500C481950802195
:10EA30008904995000F0B0FD01F0C0FA01F0E4FA49
:10EA400001F0C6F800F0FEFA01F048F9002002F0EB
:10EA500077FA01F011FD10BD3C07000064070000CB
:10EA600010B5FDF757F80028FBD1FFF7C5FF10BD23
:10EA700010B50649138801205268FCF765FFFCF7C2
:10EA80009BFEFDF747F80028FBD1FFDE7073020004
:10EA900000B5214885B0FCF76BFE002839D1A023D2
:10EAA000032180201D4ADB0599501D4A0002985021
:10EAB000E820C00019508020400298501948195091
:10EAC000802189049950FFF71FF800281ED10023E8
:10EAD00003930293144B802201930423520000936A
:10EAE00012490023124802F03FF9012802D0042005
:10EAF000FDF7E6F90F490320FCF764FE02F072FB14
:10EB00000F20FDF7DDF9FFF777FFF9E7FDF7D8F9FB
:10EB1000DDE7FDF7D5F9C2E7711202003C070000FE
:10EB20000C05000064070000802A002088730200A2
:10EB300009EA01009073020076DF70477ADF7047C0
:10EB40007CDF7047A8DF704767DF70473CDF7047A6
:10EB500010B5FDF7B5F910BD10B50400FEF762FD64
:10EB6000200003F071FD10BD10B5040084B003F067
:10EB7000A1FE200005F0C6FF200003F047FE238819
:10EB8000112B3FD01DD9512B27D0552B10D03A2B0C
:10EB90000ED0200003F01EFD200000F05DFB2000E1
:10EBA00001F052FA21001D4807F064FC04B010BDCA
:10EBB000A0881321FFF7C0FF0028EAD0FDF780F9F5
:10EBC000E7E7022B23D0102BE3D115490320FCF7F4
:10EBD000F9FDA288134B1A80DBE7A379002BD8D06C
:10EBE000A27B043A022AD4D86946022B00D0012322
:10EBF0000B70C1235B008B80A088FFF7A3FF002868
:10EC0000C7D0DBE708490320FCF7DCFDC1E7A0889B
:10EC10000021FFF799FF0028BBD0CFE7D02A0020C2
:10EC2000C474020060200020A874020010B50378AC
:10EC300084B004000E2B0AD81C4A9B00D3589F4670
:10EC4000032003F091FB002801D0FDF739F904B04F
:10EC500010BD80680028FAD0F7E700690028F6D0D8
:10EC6000F3E713490320FCF7ADFDF0E7408803F01C
:10EC7000A9FE217A0200009163880E490320FCF767
:10EC8000D3FEE4E7002303A90B70408805F0BCFF26
:10EC9000DDE7FEF7B7FA0E28D9D0082302009A4321
:10ECA000D5D0D2E705F0B4FFD1E7C046B07302007B
:10ECB000307502006475020010B50378002B00D097
:10ECC00010BD054B3B211888FFF736FF0028F7D011
:10ECD000FDF7F6F8F4E7C0466020002010B50028E4
:10ECE00005D0032802D10749FCF76CFD10BD064989
:10ECF0000320FCF767FDFFF729FF0028F6D0FDF79A
:10ED0000DFF8F3E7F87402001475020010B50B7811
:10ED1000012B12D0002B0BD0022B04D00949032069
:10ED2000FCF750FD10BD08490320FCF74BFDF9E747
:10ED300006490320FCF746FDF4E705490320FCF7EC
:10ED400041FDEFE780740200F0730200507402008E
:10ED50002074020010B5104C104A636882B010682D
:10ED6000DB0512D0002301A9019301F03DFE019BB8
:10ED7000002B07D080235B05636040BFBFF34F8F3C
:10ED8000BFF36F8F002002B010BD002300220021CE
:10ED900001F050FDF6E7C04600ED00E0CC2A00206F
:10EDA000F0B5974B9FB01B6806AD039306934822BE
:10EDB000944B9549280007F049F8002800D0F1E06D
:10EDC0000EAC22000121002007F0BCF8002800D082
:10EDD000EEE002232000238007F0CCF8002800D0CA
:10EDE000E3E08A4807F082F8002800D0ECE0884889
:10EDF00007F086F8002800D0E3E005F095FE002833
:10EE000000D0DBE0052200212000FCF709FA0121F7
:10EE10008122237802200B431340302213437F22A8
:10EE200013402370072363700933E278A3702379BA
:10EE30000A430B43024303432000E270237105F0B1
:10EE4000D5FE002800D0B6E0724805F0B5FE0028D7
:10EE500000D0D1E01123704E2B70300007F08EFEF1
:10EE6000310082B22800FFF76BFE002800D0C0E01E
:10EE7000082200212000FCF7D3F9684B20000E93F4
:10EE8000C8235B040F93FFF759FE002800D0ADE0C4
:10EE90003C2200212000FCF7C3F902230622237044
:10EEA000013BA37023825E4BE27000211A322800DE
:10EEB0006361FCF7B5F90123EB7096235B002B61CE
:10EEC00000232A006B61002100932000554B03F0C2
:10EED00095F9002800D086E0402200212000FCF7B0
:10EEE0009FF90C232380504B200063601123A387DC
:10EEF00007F01CF9002873D105A800F0F9F80021EB
:10EF000008222800FCF78CF9484B290006930423BB
:10EF100047482B716B7107F00FFA00285DD11C2256
:10EF200000212000FCF77CF9A02252016260F0224F
:10EF30000023D201A26003220E93E38123743D4B90
:10EF4000200063613C4B2273A36103F023FC002883
:10EF500040D1032003F008FA002838D18027374E2B
:10EF6000374D7F0509E00023220000210E9301F0B8
:10EF700011FE01280CD006F059FF6B683068DB05E4
:10EF8000F1D1012200235242002101F079FDF2E784
:10EF90000E9B002BEFD06F6040BFBFF34F8FBFF3CE
:10EFA0006F8FE8E7FCF78CFF0AE7FCF789FF18E7AB
:10EFB000FCF786FF0DE7FCF783FF45E7FCF780FFD2
:10EFC00020E7FCF77DFF18E7FCF77AFF0FE7FCF777
:10EFD00077FFC3E7FCF774FFBBE7FCF771FF9EE721
:10EFE000FCF76EFF88E7FCF76BFF75E7FCF768FF3F
:10EFF0004EE7FCF765FF3BE7FCF762FF2AE7C046F8
:10F00000EC73020055ED0100842A002069EB010039
:10F0100059EB01002DEC0100E0740200060019001C
:10F020005C200020DDEC0100E87402000DED010021
:10F03000D02A0020B9EC010051EB0100CC2A0020BD
:10F0400000ED00E000B5032285B00021012001F0B1
:10F05000D3FB0B4B80221860002303930293019390
:10F0600004330093920000230649074801F07CFE18
:10F07000012802D00420FCF723FF05B000BDC046E4
:10F08000CC2A0020DC740200A1ED0100A0DF704753
:10F09000A2DF7047A6DF704763DF7047F0B5060058
:10F0A00087B017000120002B01D107B0F0BD6B46DF
:10F0B0009D1D142917D802AC2980102200212000A0
:10F0C000FCF7AEF83B88210023800123A3700023C6
:10F0D000A380064BA5601888E660FFF7DBFF431EA0
:10F0E0009841C000E1E71421E5E7C046B4200020C4
:10F0F000F0B5DE46574645464E46E0B597B006A801
:10F100000200464B32CB32C21B68136002ABD91CE3
:10F11000FFF7C2FF8246002807D0504617B03CBC1C
:10F1200090469946A246AB46F0BD02ABDB7804A9F7
:10F130008B703B4B3B4A01200B80FFF7A7FF8246B9
:10F140000028EAD1384B0FAC994608239B4605AFFF
:10F1500003AD0AAE01904B461B891C229A464B46D2
:10F160009B7A002198462000FCF75AF8012243467A
:10F1700002202178134081435B0040460B4310215D
:10F18000800810408B43414600010343584649081C
:10F190001140C90083430B43237000236360E36085
:10F1A00023616361A3615346BA70002102322800D3
:10F1B0003B80FCF735F85A4623781A4201D01122D9
:10F1C0006A7002221A4201D011232B700622AB78FA
:10F1D00000219343022213435A4693431022934340
:10F1E0000122300013431422AB70FCF719F80023FE
:10F1F0000C931433B3810B4B3200188821004B461B
:10F2000037607560FFF744FF14239C46074BE144C9
:10F210004B45A0D1019B9A467FE7C046AC750200E2
:10F2200001020000E82A002064200020B420002011
:10F23000044BD860431E9841062340429843073050
:10F240007047C0466420002010B5024A137CFFF7C7
:10F2500025FF10BD64200020F0B5D6464F46464637
:10F26000C0B503880400112B34D0502B0AD0102BCA
:10F2700004D01CBC90469946A246F0BD8288224B21
:10F280001A80F6E7214AC388904692889A4239D07C
:10F29000821D9246122291464546002681442A88C4
:10F2A0002F009A4226D00136042EE2D0E3883A8B12
:10F2B00014359A42F3D1A07C013843425841B3003F
:10F2C0009E19B6004644F368C0B23074002BD0D00B
:10F2D0009847CEE70D4C012225000B4B52421A8075
:10F2E0005035E368002B01D0002098471434AC421D
:10F2F000F7D1BEE7EB68002BD5D05246484651897E
:10F300009847D0E70026D6E7B420002064200020EC
:10F3100070B50E4C0E0023680122190091430500C0
:10F320002160002E09D10322934323606B68002BD8
:10F3300002D031002800984770BD05490320FCF732
:10F3400041FA0223226813432360EFE7EC2A0020EE
:10F35000BC7502000422024B00201A607047C046B0
:10F36000EC2A0020F0B5134E83B0346800256707FF
:10F3700011D5A50712D4012792B23C433460009303
:10F3800013000A0001000C48FEF790F8051E0BD18F
:10F3900033681F433760280003B0F0BD07490320DE
:10F3A000FCF710FA0A25F6E7020005490320FCF7EE
:10F3B00065FAF0E7EC2A0020082300203C760200E2
:10F3C00060760200F8B5CE4647460B0080B50600D1
:10F3D0000D009146184902000320FCF7B5FA174CBE
:10F3E000002723685A0711D59A0714D40122134322
:10F3F000236090464B46AAB231001148FEF7B0F8A0
:10F40000071E0ED1434622681343236038000CBC0C
:10F4100090469946F8BD0B490320FCF7D3F90A370B
:10F42000F4E7020008490320FCF728FA4246236863
:10F4300093432360EAE7C046D8750200EC2A002017
:10F4400008230020FC7502002076020010B5034A54
:10F4500003490320FCF712FA10BDC0468076020073
:10F46000F476020010B5034A03490320FCF706FABC
:10F4700010BDC04690760200F476020010B5034A33
:10F4800003490320FCF7FAF910BDC046A07602003C
:10F49000F4760200FF2310B5034015D0112B0DD1D7
:10F4A0000E4B1A68002A0ED0A021A223C905DB004A
:10F4B000CB58C34001209843904704E0020008491C
:10F4C0000120FCF7DBF910BD064B1B68002BFAD0BE
:10F4D0000139481E8141C8B29847F4E7F02A00205C
:10F4E000CC760200F42A002010B5054B1B68002BD7
:10F4F00001D0984710BD03490320FCF763F9F9E7F1
:10F50000C8200020B476020010B582B00B280ED0BF
:10F510000C280ED101291AD01A4B1B68002B27D0BA
:10F520009847194C206802F0B9FA002807D102B0B8
:10F5300010BD020015490120FCF7A0F9F7E70023F0
:10F54000206800220093032102F06AF9EFE7104BD4
:10F550001B68002B11D098470B4B1C6801F088FEEC
:10F560000023020000930121200002F059F9DEE798
:10F5700008490320FCF726F9D3E706490320FCF7E6
:10F5800021F9E9E7D0200020F82A0020CC760200FB
:10F59000CC200020B476020070B586B0FEF7ACFB3C
:10F5A00000283BD1234D244C2B6805A922001120B3
:10F5B00003930593FEF7DEFB012106001120FEF701
:10F5C00059FC002E31D12B68220005A9002003939D
:10F5D0000593FEF7CFFB012104000020FEF74AFC53
:10F5E000002C1ED1062202211448FCF7F9FB00284A
:10F5F00011D1FCF74DFC002801D0FCF761FC104B49
:10F60000002200930F4900230F4802F0E9F80F4B46
:10F61000186006B070BDFCF753FCEAE7FCF750FC3D
:10F62000C0E72000FCF74CFCDCE73000FCF748FCAE
:10F63000C9E7C0467C76020095F40100B82000209E
:10F64000E9F40100DC050000EC760200F82A002055
:10F6500010B50C1E0FD000230B734B68002B07D086
:10F660004242504106224042904307308968984701
:10F670000023636010BD02490320FCF7A3F8F9E7FB
:10F6800014770200002370B50373164B164C036108
:10F6900003002033046083614061237E84B05A1CE0
:10F6A0002276002B02D0002004B070BD69460A000B
:10F6B0000E4B61CB61C21B68200013601C23CD225E
:10F6C0004B600133D20400931C3B0B738A604B7375
:10F6D0008B730522064BFEF769F90028E3D0FCF78F
:10F6E000EFFBE0E751F60100D42000200477020090
:10F6F000FC2A0020F8B5040006A840C8257B07783E
:10F70000607B002D01D0002F29D02162242162547A
:10F710000122002501319043605401316554227764
:10F720006360A660002B10D02100227310310D48B9
:10F73000FEF75CF9002810D0257311384342584178
:10F740000323404298430730F8BDA16900230122FA
:10F750000448FEF781F90028EFD10020F4E70420E7
:10F76000F2E7C046D420002070B582B004006E4697
:10F7700008A80578607BF171217B002901D0002D5C
:10F780003AD06946073121622425012106006155DE
:10F790008E430135665501356155A2622C22A35472
:10F7A000012318432D230025E0540133E5542C3B5D
:10F7B0002377069B6360079BA360069B002B11D0F9
:10F7C000217321000D481031FEF710F9002811D0E7
:10F7D0002573113843425841032340429843073070
:10F7E00002B070BDA169002302220448FEF734F97B
:10F7F0000028EED10020F3E70420F1E7D420002018
:10F8000010B5074C2268002A09D0064B18881B88BF
:10F81000000A1B02184300B290470023236010BD6A
:10F82000182B00202421002010B5114C82B0601C40
:10F8300003220021FBF7F4FC802362785B42134330
:10F84000F122A1781340123AFF3A0A4303210A43F6
:10F85000A2700622134301229343637000230232F5
:10F860000193009321000348FFF744FF02B010BD4D
:10F8700020210020F020002070B50025154E84B016
:10F880003000FFF7FFFE30008026134C02232200D9
:10F890000221029501950095FFF766FF2388360245
:10F8A0001A0A1B021A4392B233000C490320228029
:10F8B000FCF74AF82388B34204D00720084B1D7098
:10F8C00004B070BDFFF7B0FF0122054B00201A7095
:10F8D000F6E7C046F0200020142B0020307702000D
:10F8E000162B002000B5124B85B01B78002B1AD0C8
:10F8F000104B1A68002A10D0002916D01860012376
:10F900000293002301930C4B0C4A00930021022325
:10F910000B48FFF729FF05B000BD18600029EED1A4
:10F9200002910191EFE70720F5E70220F3E7C046D7
:10F93000162B0020182B002001F8010024210020A4
:10F94000F02000202C4BF0B54646984600234F4649
:10F9500099468023D6465B059A46C0B5274F88B0A6
:10F96000002403AD264E002C21D043461B880134D1
:10F97000AB807368E4B23868DB0537D04B4602A928
:10F98000029301F031F8029B002B06D053467360BE
:10F9900040BFBFF34F8FBFF36F8F0235082C0AD0E3
:10F9A000002001F019FB00F067FD002CDDD101F013
:10F9B0005FFC0390D9E701AA142103A8FFF744FCD8
:10F9C00001280DD90228F6D0002001F005FB00F037
:10F9D00053FD01AA142103A8FFF736FC0128F1D832
:10F9E000002001F0F9FA00F047FDB9E700230022FA
:10F9F000002100F01FFFD0E7242B0020282B00203F
:10FA000000ED00E030B52F4C2F4A636883B01068DA
:10FA1000DB051DD0002301AA0021019301F0BAF8F3
:10FA2000012842D000281AD0284C294D21782800DE
:10FA3000FFF758FF03281ED003282CD904281FD015
:10FA400007282FD123490438FBF7BCFE03B030BD93
:10FA500000230122002101F013F80028E4D11E49FF
:10FA60000330FBF7AFFE194C194D21782800FFF742
:10FA700039FF0328E0D119490320FBF7A3FEE5E78E
:10FA800017490320FBF79EFE01212800FFF72AFFFC
:10FA900001232370DAE7022804D112490320FBF77F
:10FAA00091FED3E700232370D0E7019B002BBBD04E
:10FAB00080235B05636040BFBFF34F8FBFF36F8F41
:10FAC000B2E7C04600ED00E0282B00201C2B0020F0
:10FAD000E9FA0100A47702006077020018780200BA
:10FAE000F0770200C877020010B50C4B0C4C188060
:10FAF00063680C4ADB0510680CD001F005FB002898
:10FB000007D080235B05636040BFBFF34F8FBFF317
:10FB10006F8F10BD01F0BEFAFBE7C046242B00201A
:10FB200000ED00E02C2B002070B5040084B000280C
:10FB300028D0244D244B6C681E68E405E40D16D0D3
:10FB40000024039401F09AFB03AB02000094062109
:10FB5000300001F065FE039B002B11D080235B0574
:10FB60006B6040BFBFF34F8FBFF36F8F08E001F0B2
:10FB70007FFB0094020000230121300001F050FEC1
:10FB800004B070BD114B0F4D186801F025FA6B6879
:10FB9000DB05DB0D0CD00C4B00221868082103ABF1
:10FBA0000094039401F03CFE039B002BD6D1E7E7C1
:10FBB000054A0321106800930022002301F030FE63
:10FBC000DEE7C04600ED00E0202B00202C2B0020BB
:10FBD00010B586B0FFF750FE03220021012000F08F
:10FBE0000BFE214B214C18606368DB052DD00023F0
:10FBF00005A9059300F0F8FE059B002B2BD11C4BAB
:10FC000001220093082100231A4801F0E9FD1A4B54
:10FC1000802218600023194C03930293033300934E
:10FC20000194002352001649164801F09DF801285E
:10FC300002D00420FCF744F91348FFF7F9FA2068D2
:10FC400001F0CAF9002006B010BD002300220021F7
:10FC500000F0F0FDD3E780235B05636040BFBFF396
:10FC60004F8FBFF36F8FCAE7282B002000ED00E015
:10FC700005FA010044780200202B00202C2B0020E4
:10FC80005078020045F9010029FB010070B501F030
:10FC9000EFFA002501240F4B8005800D986018684D
:10FCA0005968001969411860596001F0E1FA83014F
:10FCB0003F2009494A881040184348808020C000EE
:10FCC00084460B689A0262449B0D920A9B0513437B
:10FCD0000B6070BD402B0020302B002070B5264DEE
:10FCE00084B02B68002B3BD001F0C2FA234B800577
:10FCF000800D186001F0BCFA214B8005800D214E6B
:10FD000018607468E405E40D16D000242D6803948F
:10FD100001F0B4FA03AB020000940621280001F0C0
:10FD20007FFD039B002B12D1012802D00420FCF799
:10FD3000C7F8002004B070BD2D6801F099FA009456
:10FD4000020000230121280001F06AFDECE7802376
:10FD50005B05736040BFBFF34F8FBFF36F8FE3E767
:10FD60008021094B01220093C9000023074801F0BC
:10FD700037FD2860B8E7C046382B0020342B002020
:10FD80003C2B002000ED00E08DFC010058780200C3
:10FD900070B5204C204A636884B01068DB0516D02B
:10FDA000002303AA0021039300F0F4FE012824D0CD
:10FDB0001A4E1B4D1B4C012301930023022200937A
:10FDC000290033002000FFF795FC04B070BD00232C
:10FDD0001422002100F054FE0128E9D100230F4E27
:10FDE0000F4D104C01930093022233002900200094
:10FDF000FFF780FC0028DED1E7E7039B002BEDD066
:10FE000080235B05636040BFBFF34F8FBFF36F8FED
:10FE1000E4E7C04600ED00E0502B00202DFF01007C
:10FE2000582100202821002070B5032284B0002131
:10FE3000012000F0E1FC374B374C18606368DB05AC
:10FE400062D0002103AA039100F0A4FE01284FD044
:10FE500000230126314D019300930222304B2900EB
:10FE60003048FFF747FC304CC0462378012B0FD0B9
:10FE7000002B1AD0022B02D163783F2B2ED1002009
:10FE800001F0AAF800F0F8FAC0462378012BEFD170
:10FE90006378002BF3D0013BDBB263706B70FFF72C
:10FEA00077FF142001F0F8FADEE7A17862780029E4
:10FEB0000BD03E2A14D80132D2B262706A70FFF7BA
:10FEC00067FF142001F0E8FACEE7012A0CD9013AC5
:10FED000D2B262706A70FFF75BFFF2E70133DBE7D3
:10FEE000A370FFF755FFECE7A670FFF751FFE8E7B7
:10FEF000039B002BACD080235B05636040BFBFF346
:10FF00004F8FBFF36F8FA3E700231A00190000F093
:10FF1000B7FD9DE7502B002000ED00E058210020A8
:10FF20002DFF0100282100205C21002010B50F4C7E
:10FF30000F4A636882B01068DB0511D0002301A965
:10FF4000019300F051FD019B002B07D080235B053E
:10FF5000636040BFBFF34F8FBFF36F8F02B010BD20
:10FF600000230022002100F065FCF7E700ED00E02F
:10FF7000502B002010B5FF240C40012C10D0022C77
:10FF800006D0002C00D010BD0222094B1A70FAE7EF
:10FF900008490320FBF716FC0322054B1A70F2E711
:10FFA00005490320FBF70EFC014B1C70EBE7C04634
:10FFB00058210020A07802008478020000B50D4886
:10FFC00085B0FFF75FFB01230B4A0C491370002239
:10FFD000039202920A4A0093019280220023520067
:10FFE000084800F0C1FE012802D00420FBF768FF9A
:10FFF00005B000BD2821002058210020BC78020057
:020000022000DC
:10000000542B002029FE0100002210B50B4B0C4C94
:100010001A7063680B4ADB0510680CD001F074F8A5
:10002000002807D080235B05636040BFBFF34F8F7C
:10003000BFF36F8F10BD01F02DF8FBE75C210020AE
:1000400000ED00E0542B002070B5038884B0102B25
:100050001ED0112B42D10022344C354D62706B689A
:100060003449DB0508684FD00392002103AA00F051
:1000700091FD030001284DD1039A002A4AD0802225
:1000800052056A6040BFBFF34F8FBFF36F8F41E0EF
:100090000022264C264D62706B682649DB050868F5
:1000A0001ED100231422002100F0EAFC0300224E9E
:1000B000224D320029000320FBF746FC0023019368
:1000C0000233009302221E4B21001E48FFF712FB51
:1000D0003200030029000320FBF736FC04B070BD9A
:1000E0000392002103AA00F055FD03000128DED190
:1000F000039A002ADBD0802252056A6040BFBFF31A
:100100004F8FBFF36F8FD2E700231422002100F03E
:10011000B7FC03000C4E094D320029000320FBF709
:1001200013FC002301930133CBE7C0465821002084
:1001300000ED00E0502B002068780200C478020037
:1001400075FF0100282100207478020010B5114AC3
:1001500000E01A0013688342FBD351685418A04290
:1001600013D041684418A34204D00360904200D0E9
:10017000106010BD084C2468A342F6D05B68591883
:10018000416013681B680360F0E74068091851601C
:100190001000E7E768570020582B0020F0B5C6464E
:1001A00000B5040001F05CF838480368002B40D02B
:1001B000374B1E6800239846264234D1002C32D09B
:1001C000220007330832134201D09A430832002339
:1001D0009846002A27D02F4F3D68954223D32E49B9
:1001E0000C6804E02368002B04D021001C00636825
:1001F0009342F7D30368A34244D0082084460B6897
:100200006344984623680B606368991A10292ED8B6
:10021000224AED1A11683D608D4200D215601E43DE
:1002200000236660236001F0C3F8404604BC90469A
:10023000F0BD07211A4B194220D11A001D000021E0
:10024000154E71603560174EB44607266344B343BC
:10025000802619609A1A596003602B600F4B36068E
:100260001A600C4B6A601A60094B1E60A2E7A01866
:1002700041606260FFF76AFF6368C9E7DA1D8A437D
:100280001500DCE700239846CDE7C046582B002038
:100290005C570020605700206857002064570020FA
:1002A0005C2B0020F82B000010B5002809D00D4A67
:1002B00008384368126804001A4202D00168002915
:1002C00000D010BD9343436000F0CAFF064A636844
:1002D000116820008C4663441360FFF737FF01F07C
:1002E00067F8EEE75C57002060570020030001220A
:1002F00008334360C360036100235242826003609D
:100300007047C046002303617047C04643684B6096
:100310009A688A609A68516099600861036801333D
:1003200003607047020030B50C680832631C01D1CD
:100330000DE01A0053681D68A542FAD94B60996018
:100340008A605160086103680133036030BD02694F
:100350005368F3E742688168036991608268416885
:1003600051605A68824201D182685A60002202615B
:100370001A68501E186070470848006880F30888A3
:10038000074B19680868203080F30988022080F341
:1003900014883FBCAE4662B600BDC04600B0010046
:1003A000785700207047C046EFF309800D4B1A685C
:1003B00020381060F0C044464D4656465F46F0C0B7
:1003C00008B500F0C3F80CBC116808681030F0C81C
:1003D000A046A946B246BB4680F309882038F0C83B
:1003E0001847C0467857002030B5EFF3108572B635
:1003F000084B5A68002A08D18021013206485A6009
:100400004258064C22401A604450002D00D162B67A
:10041000FEE7C0466463002000E100E0FC06FFBC8C
:1004200010B58024031F64041C60043B1960034959
:10043000043B1960143B40381A6010BDE903020008
:1004400010B50A4C0A4A236A1A40C0231B041343FE
:10045000236200F0E7F80022064B1A60236910328D
:1004600013432361FFF788FFFFF7BEFF00ED00E0B5
:10047000FFFF00FF70570020084B1B68002B09D1BD
:100480008022074B52055A6040BFBFF34F8FBFF326
:100490006F8F70470122034B1A60FAE770570020F4
:1004A00000ED00E07457002030B5EFF3108272B613
:1004B0000A4B5968002908D180200131084C596045
:1004C0002158084D294019602550002A00D162B6F4
:1004D000054A13680133136030BDC04664630020D1
:1004E00000E100E0FC06FFBC7057002010B5124A86
:1004F0001368013B1360002B12D1104A5168002988
:100500000FD10F4B1A68002A0AD000221A608022ED
:100510000C4B52055A6040BFBFF34F8FBFF36F8F34
:1005200010BDEFF3108172B6074814680460536081
:100530000029E6D162B6E4E770570020646300202A
:100540007457002000ED00E000E100E070B5EFF32B
:10055000108372B6124C01256268002A08D18021EE
:10056000104865604258104D2A40226045500025D1
:10057000002B00D162B600F0F5FF6368002B02D0BB
:10058000EDB2002D00D070BDEFF3108372B6054AB6
:10059000216811606560002BF5D162B6F3E7C046B3
:1005A0006463002000E100E0FC06FFBC0022184B61
:1005B00070B51A60EFF3108372B6164C01256268AD
:1005C000002A08D18021144865604258134D2A4002
:1005D000226045500025002B00D162B600F054FE89
:1005E000002804D080220E4B52055A6040BF636839
:1005F000002B0CD0EDB2002D09D1EFF3108372B6B1
:10060000054A216811606560002B00D162B670BD9B
:10061000001101406463002000E100E0FC06FFBC23
:1006200000ED00E010B50020FDF77AFAA1221F21AD
:100630000B4BD2009950C1210122C42089005A508D
:10064000084980000A601A60074B08491A5811408F
:10065000C02212020A431A50802292021A6010BD70
:10066000001001400810014000E100E0FF00FFFF22
:1006700070B51500026C0400002A0ED0002D11D1B7
:10068000806806F07EF9226CA36894466268634431
:10069000A360934201D32368A360A36B00200133BE
:1006A000A36370BDC06806F06CF9236C21685A42E0
:1006B000E3689B18E3608B4203D263689C46624404
:1006C000E260022DE9D1A36B002BE6D0A36B013BC6
:1006D000A363E2E710B5026C0B00002A08D0C168E2
:1006E00044688918C160A14203D2180006F049F994
:1006F00010BD0168C160F8E770B50400FFF7D4FED3
:10070000A36C002B1BDD636A002B18D02500243559
:1007100008E0A36C013BA364A36C002B0FDD636AAC
:10072000002B0CD0280000F063FF0028F1D000F06F
:10073000D3FFA36C013BA364A36C002BEFDC01236C
:100740005B42A364FFF7D2FEFFF7AEFE636C002BA3
:100750001BDD2369002B18D02500103508E0636CE1
:10076000013B6364636C002B0FDD2369002B0CD00D
:10077000280000F03DFF0028F1D000F0ADFF636CD1
:10078000013B6364636C002BEFDC01235B42636419
:10079000FFF7ACFE70BDC04670B504000D00FFF75A
:1007A00083FE216CE36B22684B43D0185B1AD3188D
:1007B000E3600123606000205B42A063A260636489
:1007C000A364002D0FD12369002B03D1FFF78EFE08
:1007D000012070BD2000103000F00AFF0128F5D183
:1007E000FFF74AFEF2E720001030FFF77FFD200000
:1007F0002430FFF77BFDE9E770B506000D1E09D038
:1008000048434D30FFF7CAFC041E11D003004C339F
:10081000036005E04C20FFF7C1FC041E08D02460F3
:10082000E663256401212000FFF7B6FF200070BDBC
:100830000024FBE7F0B5C646040000B584B0019281
:100840001E008846FFF730FEA36BE26B00250027F1
:10085000934230D3022E2ED0019B002B52D0002D7C
:100860003AD0FFF743FE00F0FBFCFFF71DFE636C80
:10087000013300D16764A36C013300D1A764FFF793
:1008800035FE01A902A800F0FBFE00283ED1FFF7CB
:100890000BFEA36BE26B934222D0FFF727FE2000F2
:1008A000FFF72AFF00F084FD0125FFF7FDFDA36B94
:1008B000E26B9342CED2320041462000FFF7D8FED1
:1008C000636A002B29D100282DD1FFF70FFE0120EC
:1008D00004B004BC9046F0BD02A800F0C5FEC0E71D
:1008E000FFF704FE20000199103000F04BFE2000BD
:1008F000FFF702FF00F05CFD0028D5D1FFF7BCFD3B
:100900000125D2E7FFF7F2FD0020E1E72000FFF725
:10091000F3FE00F04DFD0020DAE72000243000F067
:1009200067FE0128D1D1FFF7A7FDCEE7F8B5CE4687
:100930004746040080B59146EFF3108272B6274D0A
:100940000126686800280CD125486E607F368759DB
:100950008446244880463840286047466046875190
:100960000026002A00D162B6A26BE06B82420CD353
:100970000020022B09D06B68002B02D0F6B2002EAB
:100980000FD00CBC90469946F8BD1A002000FFF726
:100990006FFEA36C01330FD0A36C0133A36401205D
:1009A000E9E7EFF3108372B60D4A296811606E60B3
:1009B000002BE6D162B6E4E7636A002BEFD020009B
:1009C000243000F015FE0028E9D04B46002BE6D07D
:1009D00001234A4601201360CDE7C046646300202E
:1009E00000E100E0FC06FFBCF8B50E00EFF3108359
:1009F00072B6204C01256268002A08D1802165600A
:100A00001D4D1E4F6A583A4022606F500025002B42
:100A100000D162B6826BC16B00238A4209D2836B1C
:100A200001338363836C013316D0836C0133836499
:100A300001236268002A02D0EDB2002D01D0180017
:100A4000F8BDEFF3108272B60B492068086065604C
:100A5000002AF4D162B6F2E7436A002BE8D02430D2
:100A600000F0C6FD0028E3D0002EE1D00123336062
:100A7000DFE7C0466463002000E100E0FC06FFBC45
:100A8000F0B5C646040000B584B098460F00019248
:100A9000FFF70AFDA36B002B45D1019B002B5CD017
:100AA000260002A800F0E0FD0025243614E0FFF740
:100AB0001DFD0199300000F065FD2000FFF71CFED0
:100AC00000F076FC002845D0FFF7EEFCA36B002B6E
