:020000040003F7
:10AC0000807F0020CDE403000DE503000FE5030085
:10AC10000000000000000000000000000000000034
:10AC200000000000000000000000000011E503002B
:10AC3000000000000000000013E5030015E503001C
:10AC400017E5030017E5030017E503008DD903009E
:10AC500017E503000000000017E5030017E50300F7
:10AC600017E5030017E5030017E5030017E50300E8
:10AC700017E5030021DB030017E5030017E50300D8
:10AC800017E5030051DF030017E5030017E5030094
:10AC9000EDDB030017E5030081D8030017E503008F
:10ACA00017E5030017E503000000000000000000A6
:10ACB0000000000000000000000000000000000094
:10ACC00010B5064C2378002B07D1054B002B02D082
:10ACD000044800E000BF0123237010BD882C002031
:10ACE0000000000030F70300044B10B5002B03D028
:10ACF0000349044800E000BF10BDC046000000004A
:10AD00008C2C002030F70300144B002B00D1124B89
:10AD10009D46402292029A1A924600218B460F4687
:10AD20001148124A121A00F07BF80D4B002B00D08C
:10AD300098470C4B002B00D09847002000210400BE
:10AD40000D000B4800F016F800F046F8200029002E
:10AD500003F01CFA00F016F800000800807F0020C5
:10AD60000000000000000000882C0020683900204E
:10AD7000B1AD0300002310B501001A00180000F067
:10AD800057F810BD084B10B50400002B02D000216D
:10AD900000F0B8F8054B1868836A002B00D098477C
:10ADA000200000F019F9C04605AF0300C4F303000A
:10ADB00070B5074D074C641BA410002C02D104F0A1
:10ADC000FBFA70BD013CA300EB589847F5E7C0467D
:10ADD0006C2C0020702C002070B500260C4D0D4C02
:10ADE000641BA410A64209D1002604F0DFFA0A4D24
:10ADF0000A4C641BA410A64205D170BDB300EB58E9
:10AE000098470136EEE7B300EB5898470136F2E772
:10AE1000682C0020682C0020682C00206C2C00205E
:10AE200003001218934200D1704719700133F9E7FB
:10AE3000F0B5304D85B02C680600019117000293E3
:10AE4000002C0AD12C4B2D4A2B601C00002A04D068
:10AE500019001268883103920A6063681F2B3DDD78
:10AE6000274B002B03D10120404205B0F0BD8C20C0
:10AE700000E000BF041EF6D02A6800230260020032
:10AE800088324360286013609E421ED084204000B8
:10AE900000E000BF0028E6D003000022FC335A6027
:10AEA0009A60230088331860012261688A408B0011
:10AEB000C31880C3FC304168114341600299D967CF
:10AEC000022E02D183681A438260636800205A1CF4
:10AED00062600233019A9B001A51C6E7002EF4D03B
:10AEE0002300883318680028DED1054B002BBAD028
:10AEF000CCE7C046302D0020A42C0020000000002C
:10AF000000000000F0B585B003900191304D2C6831
:10AF1000002C01D105B0F0BD230088331E686368A2
:10AF20005F1E9B000093002F14DA2A4B002BF1D0F8
:10AF300062682368002A49D1002B47D02B60002E7D
:10AF400002D0300000E000BF200000E000BF2B680E
:10AF50001C00DDE7019B002B0BD0002E03D1009BD2
:10AF6000013F043BDEE7009B019AF318DB6F93423D
:10AF7000F5D1009B6268E118013A4B68BA4216D1DC
:10AF80006760002BEBD062680292002E06D001228F
:10AF90003000BA40FC30416811420BD198476368D9
:10AFA000029A9342B2D12B68A342D8D0AEE70022D6
:10AFB0004A60E6E70099806804397158104202D16E
:10AFC00003989847EBE708009847E8E72500BFE7B4
:10AFD000302D002000000000FEE7C04670B5EFF302
:10AFE000108672B6094B0122596800290CD1084C11
:10AFF0005A60E26F074D2A401A60E5670170002E23
:10B0000000D162B6002070BD0270F8E7342D002038
:10B0100004E100E0FC06FFBC084B09491A682F2335
:10B02000C046C046C046C046C046C046C046C046F0
:10B030008A4200D0C046013BF2D17047602C00200C
:10B040000024F400F0B585B001920AAA1278050038
:10B0500000780392304A002858D10C780294966AFE
:10B060002E4CB44667462600002F04D09062012182
:10B070006161297014E0176A002F25D066461662B8
:10B08000966A002E02D061469162F0E70D78AB42DD
:10B0900011D90198455D2248255008780130087083
:10B0A0000299012099420BD193680120002B07D00F
:10B0B0000020906004E0039D0121002D02D0E16199
:10B0C00005B0F0BD6161EBE7D0680028E8D0D7603B
:10B0D000906A002801D09762C9E708788342DFD9D7
:10B0E000A324E4003459019D2C5408780130C0B2E7
:10B0F0000870591E884206D18021022089007050B4
:10B1000001213162CCE78342FAD1C9E7002393627F
:10B110001362D360C8E7C046FC30004000300040F6
:10B120001C05000000200A490A4A8B588B508342B4
:10B130000DD00130084A1840013810408222120216
:10B1400080189A0700D505485B0700D5044870476A
:10B1500000300040C4040000037EFFFF01820000B5
:10B1600002820000024A9368013B93607047C04628
:10B17000342D002010B500240B689A684B680260DB
:10B180004260C360846094781B19032403611457E0
:10B190001B1943614B6803610B000C334361537807
:10B1A0003F229343802B01D10431016110BD10B5C2
:10B1B0004468A31843600023994204D1012010BDC4
:10B1C000E05CC85401339A42FAD1F7E710B58368BE
:10B1D0000400002B01D1002010BD01220368984714
:10B1E0000028F8D0A368013BA360F5E7F0B5002480
:10B1F0000E00250087B00390029404ABDF1D3900D8
:10B200000398FFF7E3FF0190002810D07F203F78DC
:10B210002A003840002104F0BDF8029B7FB20B43A6
:10B22000044302930735002F04DB346073600198F8
:10B2300007B0F0BD462DE0D100230193F7E773B5C9
:10B240000D0069461400FFF7D1FF00280ED0019AC7
:10B250000099D6074B0833435208C90701D5DB4391
:10B26000D2432979082902D12360626076BD04297E
:10B2700009D118002360D91758404A40104343426F
:10B280005841C0B2F2E7022903D118B22080C11799
:10B29000F2E700200129E9D158B22070F7E737B56D
:10B2A0000D0069461400FFF7A1FF00280ED02B798E
:10B2B000082B0CD1009B019823606060009A5340DA
:10B2C000019A5040184343425841C0B23EBD042B3E
:10B2D00003D1009B23600020F0E7022B04D1009BE8
:10B2E0002380009B9BB2F6E70020012BEED1009B50
:10B2F0002370009BDBB2E1E737B50D00694614000F
:10B30000FFF774FF002806D02A79009B0199082ACC
:10B3100002D1236061603EBDD917042A09D118000B
:10B320000A00236058404A40104343425841C0B28B
:10B33000F1E7022A03D118B22080C217F2E70020F9
:10B34000012AE8D158B22070F7E7F0B587B004AB16
:10B35000DD1D029129000190FFF738FF061E03D181
:10B360000026300007B0F0BD2F787AB2002A12DA3A
:10B370007F2207241740039229000198FFF726FF38
:10B380000028EDD02B78039A1A40A2405BB21743F5
:10B390000734002B02DB029B1F60E2E7232CEBD17A
:10B3A000DEE7F7B50D0001A90400FFF7CEFF002886
:10B3B00001D10020FEBD2B002200C2CAC2C3126808
:10B3C0001A60019BAA689A42F3D3AB60A268D31AB1
:10B3D000A360EFE730B5040085B01500002903D164
:10B3E000114B02689A420CD1A368AB4212D20020E2
:10B3F0000EE0102269462000FFF7ECFF002807D07E
:10B40000103D102DF5D82A0069462000FFF7E2FF15
:10B4100005B030BD2A002000236898470028E6D0F8
:10B42000A3685D1BA560F3E7AFB10300F7B50E009D
:10B4300001A905001400FFF788FF002813D0019A26
:10B440000020511C8A420ED83F277378BB43802BC3
:10B4500009D033798B4206D321002800FFF7BAFFC9
:10B460000023019AA354FEBD73B50E0001A9050087
:10B470001400FFF76AFF002811D0019A0020FF2A6C
:10B480000DD83F2173788B43802B08D03179531C22
:10B49000994204D32270611C2800FFF79BFF76BD00
:10B4A00013B5140069460822FFF794FF002803D063
:10B4B000009A019B2260636016BD13B5140001A9B8
:10B4C0000422FFF787FF002801D0019B236016BDEF
:10B4D00037B50400052921D8080003F03DFF030F0C
:10B4E000151F1F1D01AD012229002000FFF772FF6B
:10B4F000002802D02B787F2BF4D83EBD08220021F3
:10B500002000FFF767FFF8E701A92000FFF71DFF04
:10B510000028F2D0019AF2E70422F0E70020ECE7DD
:10B5200070B50300426800201178814210D01100EC
:10B530000C315960117B81420BD1196898605960B8
:10B540008A78DC68A2181A61C97849B252185A611F
:10B5500070BD3025547811792540302D1AD1567B95
:10B560003540302D16D191781C69611A196101009E
:10B5700030205478044202D1986801309860907B62
:10B580004118186941181961D27B012052B28918FB
:10B590005961DDE70F2025008543202D02D1507928
:10B5A0004143E5E73F208443802CE1D10421DFE7DC
:10B5B00010B5044B002900D119731B69002B00D072
:10B5C000984710BD342D0020084B094A1B68C0461F
:10B5D000C046C046C046C046C046C046C04693426C
:10B5E00000D0C0460138F2D17047C046602C002020
:10B5F0000024F40018DF70471FB50C22002101A8B9
:10B60000FFF70EFC022368460093FFF7F3FF05B037
:10B6100000BD70B5084A012453691D00A5430029E7
:10B6200007D10324A34353614368002B00D09847FC
:10B6300070BD02232B43F6E7342D0020F0B5030044
:10B64000186880F308885868FF2464B2EFF3058512
:10B65000002D01D1A6460047251C061C21273FBA14
:10B66000F0B40024002500260027F0B4F92040B2F1
:10B670000047C046F0BD13DF70470122064B52421F
:10B6800010B5DA670400FFF7F6FF002802D12000AA
:10B69000FFF7D4FF10BDC04604E100E061DF704752
:10B6A00060DF704710DF704752DF70477BDF704705
:10B6B0007ADF704776DF704775DF704713B5184C37
:10B6C000184B208B984212D02200A37E28320133DF
:10B6D000DBB2A37612789A420AD321003831FFF701
:10B6E000EBFF002803D0636B002B00D0984713BDFD
:10B6F0000023A37623002C331B78002B08D03B219A
:10B70000FFF7D8FF002803D0636B002B00D09847C9
:10B71000236B002BEBD0002201A80270E6E7C046A5
:10B72000342D0020FFFF0000BFF34F8F034B044A6E
:10B73000DA60BFF34F8FC046FDE7C04600ED00E082
:10B740000400FA05F7B5224D2B6C5E425E416A6C2F
:10B75000F6B2002A37D001272B0048331C78E4B218
:10B76000002C2BD101A8FFF79FFF052822D000282D
:10B7700001D0FFF7D9FF01986B6C9847002E1BD1C1
:10B780002B0048331B78002B18D16B46991C2B00DB
:10B79000EE6C4A331B8830000B80FFF77FFF0528D3
:10B7A0000DD00028E5D130002B6C9847002CE7D154
:10B7B0002600D0E73C00E1E7002CCDD0F7BD002CFF
:10B7C000FCD10134F4E70124002BD9D1F6E7C046BF
:10B7D000342D002010B5002901D0FFF7A5FF044B40
:10B7E00050331B78002B01D0FFF7ACFF10BDC046D3
:10B7F000342D002010B5FFF797FF5A68054B92686B
:10B800009A4206D14268836803490132013B4A6586
:10B810008B657047C8F30300342D002070B50025F8
:10B82000074E084CA41BE408AC4205D0EB00F3180B
:10B830005B689847002801D0FFF776FF0135F3E7F2
:10B84000802C0020882C002010B5FFF76DFF67DFEB
:10B85000704763DF7047A9DF7047A6DF7047F0B518
:10B8600087B06B4605000A200F00DA80002106220F
:10B8700068449E1DFFF7D4FA012302ACA370054B68
:10B8800021005C3328002780A660E360FFF7E5FF16
:10B8900007B0F0BD342D0020F8B5134B05009C888F
:10B8A000124B08209C421DD00126114BDF6E3742FF
:10B8B00018D05C33583018705D385870080AD97049
:10B8C0001871080C090E9971110ADA711972110CAC
:10B8D000120E58719A729E70597229880B2220009C
:10B8E000FFF7BDFFF8BDC046602C0020FFFF000041
:10B8F000342D002070B50B4B05009C880A4B0820A6
:10B900009C420DD0094BDE6EF60709D55C335830EA
:10B9100018709A705970298803222000FFF79FFF42
:10B9200070BDC046602C0020FFFF0000342D0020B9
:10B93000A5DF7047A2DF7047A0DF704786DF704742
:10B940007FDF70477DDF70477CDF704774DF7047B3
:10B9500073DF704772DF704771DF704770DF7047C9
:10B960000022F0B5CDB00B784C781B06240423439D
:10B97000CC7823438C780431240223430CAC13513C
:10B980000432402AEFD12300112713269A6B5C68FA
:10B990001100F9418C4611006546F141920A694057
:10B9A0004A401D68596A0433491952180725210075
:10B9B000E9418C4621000B35E9416546E4086940C0
:10B9C00061405218DA633CAA9A42DFD1036D002726
:10B9D0000293436D029C0393836D039E0493C36D96
:10B9E0000593036E0693436E06990793836E08933F
:10B9F000C36E09930A93089B0193079B0093059BD1
:10BA00000B93049B9C460B230D000A00DD41053B74
:10BA1000DA416A400D001333DD412B4B55400CAA2F
:10BA2000DB59BA5804379A18AA18019B009D8B431A
:10BA30000D406B40D2180A9B2500D3180A930D23A2
:10BA4000DD4102222B002500D54122005D40162356
:10BA5000DA416346554062467340324023405340CA
:10BA6000ED180A9A0B9BD318521965460B95019D48
:10BA70000A9580256D00AF421DD1029DAA1802656E
:10BA8000039A1419049A44659619059A86656244C6
:10BA9000C265069AD318009A03669446079B019ADA
:10BAA0005918089B4166634494468366099B634426
:10BAB000C3664DB0F0BD009DB446009126000195CF
:10BAC000190014009FE7C04678F503000B4B1900DE
:10BAD000D4310A68013A0A60002A05D10220084AD6
:10BAE0005832117881431170D0331A680132042A18
:10BAF00001D01A6070470022FBE7C046342D0020B9
:10BB0000B42D002028DF704729DF704730B5002AA8
:10BB100007D01368DB4301244118884204D1D8437D
:10BB200030BD01235B42F6E70278534008225D08EE
:10BB3000234000D0034B013A6B40002AF7D101307B
:10BB4000EBE7C0462083B8ED10B50A4B00201A6A17
:10BB5000012A0DD1DC691000002C09D09969064B2F
:10BB600000221868FFF7D2FF201A44426041C0B299
:10BB700010BDC0460C3800200830000010B5094A3E
:10BB80005368002B0BD0002809D1EFF3108372B655
:10BB9000054914680C605060002B00D162B600208B
:10BBA00010BDC046342D002000E100E010B508298A
:10BBB00001D0FFF7B9FD03684068984710BD0C49F4
:10BBC00030B50A005C3254789278631CDBB29A423A
:10BBD00000D100230A005C32157800229D4204D077
:10BBE0000370182060430A6E1218100030BDC04662
:10BBF000B42D0020F7B5164C0825236E002B24D059
:10BC0000A36F002B21D00027124B043D1F746B46FD
:10BC1000DE1D30003770FFF7E1F96B46981DFFF726
:10BC2000CEFFB84208D0022303700A4B3D004360A8
:10BC30006B469B795C3463703078FFF79FFF002D73
:10BC400003D18022044B52035A602800FEBDC04637
:10BC5000B42D0020182E0020FCE100E0042370B574
:10BC6000144D0020EC6E1C420ED123431248EB66AB
:10BC7000FFF7AAFC114B9888114B984205D013216D
:10BC8000FFF718FD002810D070BDA3070DD5FFF7F2
:10BC90005DFE0028F8D1A022A1238021DB00D2057F
:10BCA0000903D15006231C43EC66FFF7A3FF0020D5
:10BCB000EAE7C046342D0020C0D40100602C0020EB
:10BCC000FFFF0000F0B5344B85B0DA88334B198F95
:10BCD00091420AD8598F914207D31B6B002B58D140
:10BCE00000232D4A137305B0F0BD2B4A127B002AA6
:10BCF00006D01B6B002BF3D0002203A8027044E097
:10BD00009A7E002A39D11E6A254C236E002B3ED024
:10BD1000042E34D9A36F002B39D0230064335B7C0D
:10BD200000270196012B00D0019703A80770FFF7A9
:10BD300055F902ABD81CFFF742FF0425002811D0AB
:10BD4000012303702300002564334360154A164B1A
:10BD50005C34D358C6608360019B4761036102ABCA
:10BD6000DB78637003AB1878FFF708FF002D07D16D
:10BD700080220E4B52035A60B2E75E6AC4E7072581
:10BD8000064B28005B6B002BAAD09847A8E7082534
:10BD9000F6E703A80122B1E7342E0020342D00205D
:10BDA000B42D00200010014004050000FCE100E07B
:10BDB00080220C4B920270B5DA678023D2220125D3
:10BDC000094C5B029200A350403AA3506560FFF714
:10BDD00023F9A5600025054C2561FFF71DF92575A0
:10BDE00070BDC04604E100E000100140342E002088
:10BDF00010B50E4C631D627DDB7F9A4200D110BDF1
:10BE0000607DA269C0B2C300D318228C99885043C8
:10BE1000E2691B6810189847637D618CDBB20022D1
:10BE2000994201D90133DAB26275E2E7342E00207B
:10BE300010B5064CD4342368042B00D010BD044840
:10BE4000FFF7C2FBFFF7D4FFF5E7C046342D002013
:10BE5000A0860100F8B5174B04001D68164B04209E
:10BE60001968164BC918491BA1421ED3144B15481B
:10BE70001E6A8562012E19D1134F9A69D219920A4E
:10BE80009202891A00278C4203D91E615F610F4D0F
:10BE900004E0AA180E4D1F615E6182620C2200212F
:10BEA0002800FEF7BDFF00202C60F8BD00221A61BB
:10BEB0005A61ECE7083000001410001000F4FFFF96
:10BEC0000C380020342E0020FF030000243800200E
:10BED0003038002010B50C220021FEF7A1FF00220F
:10BEE000024B1A635A631A615A6110BD0C38002064
:10BEF00002210020F0B5274E8DB0F36E194081422B
:10BF00003FD106AD18222800FEF78AFF6B469F1C22
:10BF10000B233B80204B01AC0193204B0D20A380D1
:10BF2000FE2339006844A371FFF70CFD002828D1D7
:10BF300039880B2927D84B1CE3710923C9182372B0
:10BF400089B20023C9B21A002000FFF703FD0028C0
:10BF500017D1282328706860287228000A93FFF7F9
:10BF6000F7FC00280DD1A02380210D4ADB05090331
:10BF700099508021043A490399500223F26E1343E9
:10BF8000F3660DB0F0BD0C23E371043B2372142162
:10BF9000D7E7C046342D00200201060302590000F5
:10BFA0000C05000070B50F4C05002200D432126859
:10BFB0000020042A14D02100D03109685118032927
:10BFC00000D9043920000132D430026018225143D4
:10BFD0007034641820000021FEF722FF01202C603D
:10BFE00070BDC046342D002030B5040085B00D0072
:10BFF000102200216846FEF713FF237A012B0AD096
:10C00000022B10D0636829000193236868469B685F
:10C01000984705B030BD00236A4613702369029328
:10C02000A38A9381EEE701236A4669461370A289C9
:10C03000E3894A81D31A0B81E4E7204B70B51A00DB
:10C04000D4321268002A2DD01A001824D032156874
:10C050001A006C4370321419227A012A06D0022A7F
:10C0600024D009212000FFF7BFFF1BE0A28AE08A4D
:10C07000121AFF2A17DC92B2182169435B18D96F94
:10C080000433DB6F800009181818FFF73DFD1128F5
:10C0900010D102210A4B58331A788A431100042226
:10C0A0000A431A7070BD80225200E5E7A089FFF7AD
:10C0B00029FDECE70028F5D0D3E7C046342D002059
:10C0C000B42D0020022170B52D4A04005832137897
:10C0D0000B4248D02B4A1300D0331D6818231000A0
:10C0E0006B437030C0188C4204D0032C2ED0FFF765
:10C0F000A4FF70BD0021244B2C331970037A012B4F
:10C100000CD0022BF3D18389028A01338381C38946
:10C1100001339BB2C3819A42E9D10FE0848AC38A7A
:10C12000E11AFF290FDC89B25B1818214D437032E8
:10C130009BB25219D38200219C42D8D1FFF754FF01
:10C14000FFF7C4FCD3E780214900EDE70E4A2C320B
:10C1500013780133DBB2032B01D81370C7E7002338
:10C1600008211370EAE704200342C0D08343054846
:10C170001370D43000680028B9D00B43EDE7C046F7
:10C18000B42D0020342D0020342E0020062210B5BE
:10C19000054B58331978114204D1043A0A431A70F6
:10C1A000FFF74BFF10BDC046B42D0020F0B5474E41
:10C1B00087B07369050000925A074BD502220A2006
:10C1C000134235D1093803437361414B58331B780F
:10C1D000034230D03F4F404B9F4237D33F4B10007C
:10C1E0009F4228D2002D33D0AB052DD13B689D4214
:10C1F00028D38BB29B027A68EB189A4222D38CB276
:10C20000002C1DD002A8FFF7CDFE002812D0029B03
:10C21000009A1F605A600222029BAD0A1A729D8129
:10C220001C82FFF7B3FF012300207269134373617F
:10C2300007B0F0BD0720012372699A437261F7E7E6
:10C240000420F8E70520F6E70620F4E71000F2E7FF
:10C250000320F0E7830A02000220844680200E00BB
:10C260009BB201931E4C1F4BC00067461F511F58C5
:10C27000002FFCD0A127FF00DA511F58002FFCD05F
:10C2800000271F511F58002FFCD08027013EFF00C0
:10C29000D219002EE9D1009889026D180028C7D064
:10C2A0001022310002A8FEF7BBFD012302AA137081
:10C2B000009BAD0A039313006A46928818001A8106
:10C2C0005D813100009B98473000B1E7342D00209C
:10C2D000B42D0020702C0020702C0020802C002019
:10C2E0000405000000E00140F0B53E4F87B0009328
:10C2F0007B6905000C00590748D502210A200B4232
:10C3000042D1093803437B61374B58331B780342D2
:10C310003AD0364E364B08009E4235D3354B9E42BE
:10C3200032D203231800002C2ED0002D2CD0210057
:10C330002943D818194227D1336801389D4223D3A5
:10C3400093B29B007168EB1899421DD393B201938D
:10C350000138002B18D002A8FFF724FE03000720A5
:10C36000002B11D0029B009A1E605A606A4601267B
:10C37000029B92881E72DC601D619A82FFF706FFA5
:10C3800000207B691E437E6107B0F0BD0121802043
:10C39000194B1A4FC000D95119580029FCD09100EF
:10C3A00080208C460021C0008C4514D10021D95139
:10C3B00019580029FCD000240098A042E4D002AB18
:10C3C0001C7002AB03909A81180004952100009B19
:10C3D00098472000D8E766586E501E58002EFCD0B3
:10C3E0000431E1E7342D0020B42D0020702C002012
:10C3F000702C0020802C002000E00140040500008B
:10C400000F2110B5426886B0527803001140082908
:10C4100010D103691C68002C01D106B010BD0023A7
:10C42000210023736846FEF7A5FE6846FFF7E8FF84
:10C43000A468F0E73F2110008843011E20D130207E
:10C44000104010280ED15A6911700F215A681869CE
:10C45000537894680B40072B09D10100200000F0AD
:10C4600017F8DAE79206F0D55B691970D5E712790B
:10C47000211E02D002F05FFFCFE7FEF7D1FCCCE730
:10C480008028CAD10021186901609206C5D5EBE762
:10C490007FB5002303910090019002938378C9181F
:10C4A00003230491C356C91803780591002B07D0C4
:10C4B0006846FFF7A5FF6846FFF732F80028F7D176
:10C4C00007B000BDF0B506005068140043783F2265
:10C4D0001D008BB0954304D0402D00D169E00025AC
:10C4E00048E00F221A409700BC465F4F6744BF6F79
:10C4F000009730273B40102B1DD007D8002BEED1E2
:10C50000010022693000009B98475BE0202B17D088
:10C51000302BE4D1037861690B70072A0ED1636870
:10C5200029001A792069FEF77BFC63682169986805
:10C53000FFF7AEFF02E0012362691370226936E063
:10C540006769022928D1042A26D806A93000FEF7F7
:10C5500028FF051EC3D0089B0193002B04D06168FF
:10C560003A784B79934208D8079B00937360089BF5
:10C57000002BB4D128000BB0F0BD0B7906A85A43AC
:10C5800023699A18009B9847002803D03B78013311
:10C590003B70E0E70500E7E73B78027921695A4301
:10C5A0008A18417900259942E4D901333B706168CA
:10C5B000A8E727693B1D00933B68002B04D130009E
:10C5C000FEF786FF0500D5E7022915D106A9300040
:10C5D000FEF7E7FE002800D181E7009A616806A80F
:10C5E0003B689847051E00D179E7089B0193002B13
:10C5F000F3D1079B7360BDE701292CD0002909D036
:10C60000052900D06BE7042203A93000FEF7E2FE03
:10C61000042526E003AB5B184D1C01930B2D00D1C4
:10C620005DE7012201993000FEF7D4FE002800D119
:10C6300055E7019B29001B785BB2002BEADB0B4B13
:10C640000895069303AB0793002309933B68009A70
:10C65000616806A858E7082203A93000FEF7BAFE71
:10C6600008250028EBD13AE7C8F30300AFB1030077
:10C670000023F0B593B009920493059306910791B6
:10C6800008930400887812180A92C978029349B274
:10C6900052180B92A368002B24D1079B06A8019384
:10C6A000089C5D78FEF73CFF0028F6D130231D4240
:10C6B00004D1079B1B785A1E9341E4180120002CDB
:10C6C0001AD000226309934258D11F229B0004A96B
:10C6D0001440CB580132141B213AE240012093420E
:10C6E00009D109E00CA92000FEF72FFE002805D192
:10C6F000A368002BD1D0002013B0F0BD0C9D079E85
:10C70000002DCAD00723EF081D400195079B1A781A
:10C71000974204D10F225B781A40082A35D106A827
:10C72000FEF7FEFE079B9E42F0D1029BBB420ED855
:10C730000F21079A53780B40082B46D006A8FEF726
:10C74000EFFE079B9E42F3D101235B4202930199C6
:10C750002000FEF7BDFE00289CD1CCE79B681B782B
:10C760009F424DD131000CA8FEF704FD01230CAA15
:10C77000337301992000FFF7A5FE3EE0910004A865
:10C7800009580131B7D101329DE7302213420ED151
:10C79000089B3F2B0BD81F215A09194001238B40BE
:10C7A000920004A989580B43039104A98B50E668B1
:10C7B000002E04D006AB019A39002000B04706AA2B
:10C7C00001992000FFF77EFEC5E713780293BB4274
:10C7D000BDD8A36803930A9B1E68A368039A002E22
:10C7E00010D09A4200D055E733681A68151EB5D0AC
:10C7F000019B3A0031002000A847002800D17AE7C9
:10C80000B668EAE79A42A2D044E7F0B585B00E00D8
:10C810008C68694607001500FEF7C3FD002812D09A
:10C82000B06800280FD0302273781340202B03D13A
:10C8300029002000FFF72CFE2A0021006846FFF7A0
:10C8400017FF019B7B6005B0F0BD70B50D4A0E4C23
:10C850000E4B22630E4A9B6B62630022A3630D4D55
:10C860000D4B0E4E1C35E3630D4B310028005A650D
:10C870009A65FFF70DFE2000320029003030FFF7E7
:10C88000F7FE70BDAFB10300342E00200C3800203D
:10C890006838002048F40300FBB70300E0360020AE
:10C8A000342D002070B505001B4C237B002B13D1C9
:10C8B000013323732561FFF7BBFA184D00220121D4
:10C8C0002800FFF773FC02000728F4D0002809D0E5
:10C8D00000230320237370BD1148FEF775FEFFF798
:10C8E00087FAE1E758210F48FFF710F9AE220E4909
:10C8F0000E4E08605200300002F01DFDFFF798FA5E
:10C900000B4B572231002800FFF7EEFC0728F5D02B
:10C910000028E0D0DCE7C046342D002000FC0300F6
:10C92000A0860100103800200C380020843100203F
:10C93000B1B503008022F0B5214F52013B6B87B0A7
:10C940009A18204900927A6B1E185418E41AA40A07
:10C95000A402A5086D18AD0AAD02002A02D000207D
:10C96000934228D0AB08019301230293009B02A8B5
:10C970000493019B03960593FEF73CFE00281AD111
:10C9800003230293009B02A80393019B0496059343
:10C99000FEF730FE00280ED1009B76195B1900933C
:10C9A000A5420AD8641B7B6B00201B1B3B63FFF76F
:10C9B00079FF002CD8D107B0F0BD0400F3E7C046E2
:10C9C0000C380020FF030000F0B5134B85B05C6B02
:10C9D0000B6825181C1B03230093104BA408684602
:10C9E0000E00019302950394FEF704FE071E07D183
:10C9F0003000FFF76FFA3800FFF754FF05B0F0BDC5
:10CA0000102200216846FEF70BFA68460195029451
:10CA1000FEF7F0FDF2E7C0460C38002000AC030042
:10CA2000F0B5002585B002ABDF1D009038000E0088
:10CA300001923D70FEF7D2FA1D4C2800631D617D06
:10CA4000DB7F628CDBB2C9B2934201D20133D8B230
:10CA5000184D81420AD0631DDD7FDB7F0021DBB2F0
:10CA60009A4201D90133D9B2631DD9773878FFF7DB
:10CA700085F8104B04209D4215D0A369019AEF0060
:10CA8000DB191A60009A002A0FD0002E0DD0208CDE
:10CA9000E369684332001818009902F04CFC00204A
:10CAA000A369DF19BE8005B0F0BD00209880FAE7C9
:10CAB000342E0020FFFF000007B5064B00901B8CB2
:10CAC00001910920072B04D9034A08216846FFF782
:10CAD000A7FF0EBD342E0020ADBB0300002110B512
:10CAE000024A0800FFF79CFF10BDC046D5B70300FF
:10CAF000C023F0B5AF4A0E00AF49DB00D1500500AE
:10CB0000007885B0012801D0062805D16B68DBB21A
:10CB1000012B0AD1A94A9371A84B9B79012B0AD00A
:10CB2000022B00D1F6E0052402E00724022BF1D00D
:10CB3000200005B0F0BD0138052800D9B0E202F0B0
:10CB40001FFC0600250043001E00AF02E000AB689A
:10CB50000324002BECD08022013452009342E7D80A
:10CB60000024974BE03A4033210096481C70FEF7B2
:10CB700057F9954B1C63AA6801349A63D8E7924B26
:10CB8000DA6B72601B6CB3600124D1E78E4CAA682B
:10CB9000E06BA16B13188B4204D97060236CB360F7
:10CBA0000324C5E75C306968001902F0C4FBE36B3D
:10CBB000AA689F18E763A9686868844AFEF7A6FF19
:10CBC00020647760236CDEE77F4B0824DA6B9B6B75
:10CBD0009A42ADD17A4B073C40331B78002BA7D14A
:10CBE000FFF733FEA0429ED1794F3B0074331B7890
:10CBF000002B00D17FE03B007A331B78002B00D163
:10CC000091E7744C606DA16D00281DD000291BD0E8
:10CC10003B00DB331B78002B04D03B00DC331B785C
:10CC2000002B11D13B0084331B78002B0CD03B0030
:10CC300088331B68332B07D13B008C331B78664D40
:10CC40009C460023634501DB0A2471E79A00903279
:10CC50002E88BA58B24200D124E20133F2E7B03252
:10CC60001278B433002AEFD01A685C4BDA62544869
:10CC7000202244305A4902F05EFB584BD86A002803
:10CC80008ED0FFF7E7F8002816D1FFF70BFE00283B
:10CC9000DAD101244A4B40331C7049E7A83212789C
:10CCA000002AD1D0AC331A684C4BDA62FF234D49CD
:10CCB0009B025B1A9A42DAD9042439E7A23212782D
:10CCC000002AC1D0A433CFE7A8321278002ABBD003
:10CCD0001A00A2321278002AB6D01A00AC33A4325D
:10CCE00011681A683D4B8818D862002900D157E7AF
:10CCF000002ADBD154E73B780524002B00D117E74D
:10CD0000A2E7314B1A6CB260DB6B736080235B006F
:10CD1000336039E70138052800D9C1E102F030FB62
:10CD20000600680030012B01C001B801AB68002B80
:10CD300000D135E79A0507D0234A2849526DC96AC0
:10CD40009A188A4200D02BE7802252019342B3D82E
:10CD50001B4E320040321278002A01D10824E7E647
:10CD6000194A1E49506DCC6A1B18A342F6D8D36CE1
:10CD700003249364AB681065536410630A00303277
:10CD800013780133234013700023124C4B86A368A1
:10CD9000A9680133A360144B144AC918B36A890AFD
:10CDA000C018FFF703FA002800D1EDE6A368013BA5
:10CDB000A360B8E6000001403546526E602C0020AA
:10CDC000342E0020443800200C3800204C3800203D
:10CDD000E0360020342D00200C300000B42E00205E
:10CDE0009B37002000AC0300FF03000065B1030087
:10CDF000CF4C236D7360A36CB360CE4B40331B7874
:10CE0000002BABD08023A9685B00994200D953E77F
:10CE1000276D636D626CFB1A5B18934200D9BFE605
:10CE20006868C54AFEF772FEA064AB68FF18276504
:10CE30007760A36CB360C14BAA685F8EC04B187853
:10CE4000C04B0002C019C018BB18FF2B39D8696845
:10CE500002F071FAB94AAB68528E9B18B74A5386F2
:10CE6000B64F7A8E002A00D18EE6B14C636D206BEE
:10CE7000D31A616C1B188B4200D285E6AD4BB24DC4
:10CE80009B6A0332C018AB6892100133AB603B0061
:10CE900030331978AB4B0902C918AC4BFFF724FAB1
:10CEA00000285DD1226B7B8ED3182363A34A032015
:10CEB000110030310B78013303400B70002353868F
:10CEC00062E680235B00DF1BBFB23A00696802F0B4
:10CED00032FA9A4B5A8EBA1892B25A86AB6803321B
:10CEE000DB1BAB606B689210DF19924B6F60986A26
:10CEF000954F236B1818BB680133BB60904B1978B2
:10CF0000904B0902C918914BFFF7EEF900281CD18C
:10CF10008A4B226B5B8ED3182363884C0322230039
:10CF2000303318780130104018700023AA686386E7
:10CF30009A4295D0834B0002C018696802F0FBF951
:10CF4000628EAB689B1863868AE7BB68013BBB6057
:10CF5000E36CA364636D23657360E36CB360DCE72B
:10CF6000AB68013BAB60E36CA364636D23657360E6
:10CF7000E36CB3609AE76E4B1A6D72609B6C02E6CD
:10CF80006B4D2A6D6B6D696CD31A994200D0E5E642
:10CF90000020AB6C68646A65EB64FFF783FC0028D3
:10CFA00000D051E6654F2B6DFA6A934200D0EBE555
:10CFB000654EB368002B2CD1654B0A24B9331B781E
:10CFC000032B14D15B4BF96A1A004432726520229C
:10CFD000986AB26501F012F80A24002800D1093CD1
:10CFE00020225C49706D02F097F9002814D16B691A
:10CFF000002B13D0012B00D026E6574B012C43D138
:10D00000534AA132107803283CD802F0A5F909262A
:10D010002D34FEF7EDFECBE70524E8E74F4BEDE7B7
:10D0200001229A604A4A0432D26FAA60AA6C5A60FE
:10D03000FA6A1A60002120224948FDF7F1FEB22267
:10D04000FF214848FDF7ECFE002347482B63FFF71C
:10D0500029FC002800D16BE5F6E5A5229A603C4A40
:10D06000A43212686A63E1E7AA229A60384A04325D
:10D07000D26FEA60DAE7AC229A60354AA4321268CD
:10D080006A63F3E70A24D1E700229A605A60D0E786
:10D09000274B9A6CB2601B6D736080235B0137E68F
:10D0A000022445E53B00E8331B78002B00D0CBE59C
:10D0B000204B443363652023A36500F09FFF0028C5
:10D0C00000D0C1E53E00E93632782849284802F010
:10D0D00032F91A4D264B6B623378AB62402B00D08D
:10D0E00021E5A36D666D0393002E00D11BE503249B
:10D0F000344000D017E501F0B7FF03001D4800934E
:10D10000039A1B4B3100403001F0B2FF002800D1E0
:10D1100009E5EC62A1373878032800D994E50C4B77
:10D120001A0002F023F99CFDCBFDBBFDD1FDC046EA
:10D130000C380020342E002054380020B42E00205B
:10D14000E42E0020E0320020342D002065B10300E1
:10D15000E03600209B3700203038002024380020A3
:10D1600044380020683800201DB80300CA3700206A
:10D17000982E002048F40300F0B5038889B004001D
:10D18000112B32D00FD8102B1DD02388142B00D197
:10D19000C6E14ED8102B00D192E03CD8022B00D132
:10D1A000ACE009B0F0BD122B2ED0502BEDD1B84D14
:10D1B000C1886A8D914241D1038A022B3ED1837C82
:10D1C000DB0718D50EE021008388B248B04D082255
:10D1D000183104302B8302F0AEF80023AB766B8D50
:10D1E000002B6DD1FEF76EFDCFE70123A84D5B420A
:10D1F0002B830023AB76FEF7FDFC0028C5D06B6BBC
:10D20000002BC2D09847C0E70822A248A1180430DA
:10D2100002F091F8E6E7112B65D0132BC1D19E4B9C
:10D220008521988800231A00FEF78AFB0028B8D0D1
:10D230005DE0512B68D033D8502BB2D1974DE288A6
:10D240002B8F9A42ADD101AE0C22002104A8FDF72C
:10D25000E7FD0C2200213000FDF7E2FD02233370D0
:10D26000230012337360238A300004A9B360FFF7F0
:10D270003FFC2B004A331E88002E00D191E72C0082
:10D2800048342388013B9BB22380002B00D088E7E1
:10D290002800069A40300599FEF7FEFA268080E7BE
:10D2A000522B00D143E1552B00D07AE7A379002B14
:10D2B00000D076E7784B13219888FEF7FBF9B5E7A5
:10D2C000A0238021764ADB05490399508021043A46
:10D2D00009039950A288704B9A8002236C4AD16E40
:10D2E0009943D1665DE7FEF703FE002801D0FEF703
:10D2F0001BFA0122684B52429A8052E7664B00218A
:10D300009888FEF7A4FA91E7A779002F00D148E7A3
:10D3100004AD102200212800FDF782FD022F00D06D
:10D320003FE75E4A21890232D28F914200D038E72E
:10D33000A37B043B022B00D833E70122AB792F708B
:10D340001343AB71238A00222B81638A01AE6B8168
:10D3500023001433EB60514B0633D98F6B46DA80D0
:10D360006B4673604C4B37809F8832003800FEF765
:10D37000DFFA00280FD16B465A781B78120213434C
:10D380000122134207D1FE232900FF333800AB806E
:10D3900000F032FE05E7002338002900AB8000F0E2
:10D3A0002BFE071E00D0FCE601000C222800FDF732
:10D3B00037FD39000C223000FDF732FD217D481E7B
:10D3C000052800D9A9E001F0C7FF03354A2BA85B67
:10D3D000638A062B04D003220121304840301CE030
:10D3E0002E4A2E4B4A32128848331A80637DE27DE2
:10D3F0007360A37D12021A43237E29001B041A4383
:10D40000637E01241B0613433000B3603470FFF7C2
:10D410006FFB2100020021484030FEF76BFAC0E6A6
:10D420000323290030003370FFF762FB0421020060
:10D430001A48D3E7638A1948032B03D003224030EC
:10D440000221EAE7A27D637D1202134302004A3201
:10D45000138002004832138040300122F0E7042399
:10D46000290030003370FFF743FB02000B48032113
:10D470004030012AD1D1AA686968FEF70DFA90E61A
:10D48000638A022B0ED0032204480621A6E7C04679
:10D49000342D0020342E0020602C0020B42E0020DB
:10D4A0000C050000637D0624290030007360347091
:10D4B000FFF71EFB02002148012AE6D1204B988885
:10D4C000204B984200D16CE61F4BD96E114200D11F
:10D4D00067E62F686E68A96860255C339A703A0A1F
:10D4E0001A713A0C5A71320A1A72320C5A720A0ABA
:10D4F000DF70DE713F0E360ED9721A730A0C090EF8
:10D500001D705C709F719E725A7399730B4B0F2242
:10D510000233D98FFEF7A3F943E6084803225DE7FB
:10D520000023A0881A001900FEF708FA7EE60023FF
:10D53000A0881A001900FEF78EF977E6B42E0020B5
:10D54000602C0020FFFF0000342D0020A0230322C8
:10D55000B449DB05F0B55A5004315A50A12280215C
:10D56000D20009039950802149039950AE4B95B0E0
:10D570000493FEF741F8041E00D042E1AB48FEF7E9
:10D580007AF8041E00D03CE1A94BAA4E4C33F36458
:10D59000330048224A331A80A74BA84AA84C5A6144
:10D5A0002568AD04ED0F03D08022A64B9201DA6707
:10D5B000A54904A8FEF776F8002806D0002D02D071
:10D5C00080239B012360FEF7AFF833000122503324
:10D5D0001A70C5239B00E3589B0D1342F3D08023A0
:10D5E0007268DB03002A00D10EE132681343336016
:10D5F0000DAD142200212800FDF712FC00230122AA
:10D600002B612B7B08AF93432B730223FF332B81BA
:10D610008E4BAA720193019B3900280008932A803F
:10D62000FEF73EF8019B041E00D0EAE0884B0100A3
:10D63000082228003364FDF7F3FB11236A46380003
:10D640001374FEF789F9041E00D0DAE07B78390004
:10D6500001337B70FEF782F9041E00D0D1E07D4CCF
:10D66000200001F071FE210082B204A8FEF76CF9DF
:10D67000041E00D0C5E0784B28000D93C8235B043E
:10D680000E93FEF715F8041E00D0BAE00122734B8A
:10D6900052429A80012302A98B70714B714A01207A
:10D6A0000B80FEF749F9041E00D0AAE010226E4953
:10D6B00004A801F040FE5E4904A83631FEF7C9F81F
:10D6C000041E00D09DE001001C222800FDF7A8FBED
:10D6D00021000C220AA8FDF7A3FB210003226846C3
:10D6E000FDF79EFB04232A78012113436A462B7021
:10D6F0005C4B68469B78937302226B469A81102399
:10D700000B43437083780620834313436A460B43DD
:10D71000937003AB3B6014237A60BB81444A444B53
:10D72000908E38333A002900FEF704F9041E68D1C0
:10D7300001001C222800FDF773FB21000C220AA81F
:10D74000FDF76EFB210003226846FDF769FB082206
:10D7500069462B780F201343921813432B70414BCB
:10D760009B788B7301216B4699815B7883430B43D4
:10D77000034068461343437083780620834304388C
:10D78000034313436A460B43937003AB3B60172379
:10D790007A60BB81264A264B908E40333A0029009E
:10D7A000FEF7C8F8041E2CD10123F26E01001343CA
:10D7B00028001822F366FDF733FB2C4B0E938023D1
:10D7C000DB010F9303232B73294B139333001C337B
:10D7D00007CD07C307CD07C330002A6838301A6069
:10D7E000244B1C73FDF762FF041E0AD10122114B6A
:10D7F00052421A8300229A761F4B1A6E002A05D1D4
:10D800000824200015B0F0BD2360F1E61A00643250
:10D81000117C0029F4D15174184A9A67FEF768FB0D
:10D820000400EEE74C0700000100000700AC030015
:10D83000B42E0020342D0020342F0020DDCA030038
:10D8400000E100E004E100E0F5B70300002C002057
:10D8500079D1030078F603000C001800602C00203A
:10D8600059FEFFFFE82E0020C8F40300CD0C000095
:10D8700049B80300342E0020B42D0020BDB60300AB
:10D8800010B5084B5B69002B04D09847002808D0DE
:10D89000FDF74AFF044B50331B78002B01D0FDF7F6
:10D8A00051FF10BD342F0020342D002010B52D4B1A
:10D8B0001A68D2B2012A0FD12B4A126812070BD173
:10D8C0002A4AE0241168F0220800104021422DD19C
:10D8D0002749096811422CD01A68D2B2012A12D104
:10D8E0002149096809070ED1F02020490968014043
:10D8F000402908D11E490968014204D18020C12174
:10D90000C005C90042501B68DBB2012B0DD1164B7C
:10D910001B681B0709D1154B1A68F0231A40A02A6F
:10D920000FD1134A12681A420ED010BD3028CFD042
:10D93000D2E7104A104911608021104A0902116093
:10D94000CAE7D02AF1D1ECE70D4B1A68012A04D0BE
:10D950000C4A1A601A68012AFCD1C0220A4B1A60CC
:10D96000E3E7C046E00F00F0E40F00F0E80F00F03E
:10D97000EC0F00F004050040DFFF07C0186C00400A
:10D9800000EC06407593000014EC0640F0B55C4CCA
:10D990005C4A27002600127889B03C373B783F3636
:10D9A0000092A26B58493000FDF74CFB002860D173
:10D9B0003378626B0392002B00D07FE02200283284
:10D9C00012789446023A012A00D977E0A26BE16A04
:10D9D0008A4200D072E0226B03990292A263220075
:10D9E0002B321578202211403D700F007A1E97418E
:10D9F00060460391434A4549FFB217708B60444A21
:10DA00008B620B62CB60032835D180218900535093
:10DA10003D4933700B70013313629360002D10D0B9
:10DA2000029908783B49505037490B70344BD969FB
:10DA300000290DD038495962596AC1239B00D15041
:10DA400017E00399002901D0D361EFE75361EDE7B7
:10DA5000260021003F36423100972B00029A300009
:10DA6000FDF7F0FA0028F3D13378002B01D0FDF751
:10DA700059FB09B0F0BD244933700B70802302219B
:10DA80009B00012D00D00121D150012313621360AE
:10DA9000E369002B04D0204B6362616A7E33CEE7DA
:10DAA0002600002321003F36009342312B00029ACA
:10DAB0003000FDF7C7FA0028F2D1D5E7210005AA0A
:10DAC000283104ADC1C9C1C2002B07D0134A104987
:10DAD0008B588B500222134202D001232B7002E09C
:10DAE0005B0700D52A702300002240331A70039B85
:10DAF0005B07BED4E369216A28009847B9E7C046AE
:10DB0000B42F0020F12F0020F62F0020FC30004021
:10DB1000003000401C05000086020000C404000024
:10DB2000F0B585B002AB9E1D002330003370FDF7C9
:10DB300055FA294B50331C78E4B2002C44D1274BC2
:10DB40001A68002A40D0C221254A89005158009203
:10DB5000CA0739D51C60A123009ADB00D358DBB279
:10DB6000019302ABDF1D38003C70FDF737FA1D4D05
:10DB7000AB6C1F2B00D85C1C6A6CAC64A24204D155
:10DB80000022202C00D0621C6A646A46EB181279CD
:10DB900050331A706B6C9C421BD3E41AEB6CA3429B
:10DBA00000D2EC643878FDF7E9FFAA6C00231F2A45
:10DBB00000D8531C6A6C9A4206D1C22201230099F4
:10DBC00092008B50084A13603078FDF7D7FF05B0FC
:10DBD000F0BDE41A2134E1E7342D002000D10040EB
:10DBE00000D00040B42F002004D00040F0B5C4485D
:10DBF0008BB0036900220393C24B197E5C7E8C427A
:10DC000000D1BDE00131C9B2022900D1B6E01976D8
:10DC10001A7E039992009A18526F89180902090A0C
:10DC2000016101210291B84801005C310C78006E5D
:10DC300001945C697C3304944C780590002008942E
:10DC4000897807000691AE491B7809699C460791BF
:10DC50000199049B00910121009C089DAC4200D0D9
:10DC600090E0002F06D06446A6497C310C70A44990
:10DC7000079C0C61A349002800D04B614B690299B5
:10DC8000002900D0CAE0049A0024D31A5A1E9341F6
:10DC9000DBB202939B4B01255A697C331B780792B8
:10DCA0000993974B1B69039300231E000493002CD8
:10DCB00000D0B9E0009B01998B4200D0D2E0002E49
:10DCC00004D06946904B09785C33197004998D4BE8
:10DCD000002900D05A615B69079A9A4202D1029AE0
:10DCE000002A45D0002B00D106E11B68874A884CEA
:10DCF0000293A558039B824EEB1A1B021B0A0333A7
:10DD00000093337D0192002B12D18023C13A5B0234
:10DD1000FF3AA350403AA350C021802201277D4BF7
:10DD2000920249005A501A602760FDF775F937755D
:10DD3000029B009A934200D21300A821039AC900C3
:10DD40009B181B021B0A6350019AA258521B120215
:10DD5000120A5D1B2D0203322D0AAA4208D9019B2B
:10DD6000E3586350FDF758F980226B4B92025A60DA
:10DD70000022644B7C331A700BB0F0BD1A7647E773
:10DD8000029250E71824009D069E6C43059D2C19B5
:10DD9000009D0135EDB20095B54201D100250095F9
:10DDA0002578022D0AD0032D00D055E7002B00D195
:10DDB00052E700201874DB690800F7E765681E0069
:10DDC0001C00002C00D147E7A54200D1A8E02600A6
:10DDD000E469F6E71D68954206D9002901D0494952
:10DDE0004B61AA1A1A6055E7521B4019D969DD68C0
:10DDF0001E608C46002D07D0DC611C0003999D60DD
:10DE000009180902090A596039006346002BE1D15B
:10DE1000002900D13EE73B4A53613BE7002101273F
:10DE20000C0008000E00F1E72300E469596803982C
:10DE30000891081A39490002000A9F68884238D8B8
:10DE4000C019186000211D7459609960D9618A4217
:10DE500006D01868116888424BD8081A1060DA6139
:10DE6000049544E01821019B5943059B5918019BD7
:10DE70000133DBB201930198069B834201D1002359
:10DE800001930B782E00012B00D013E74B68187C10
:10DE9000002800D00EE78E685E60CE689E600E6936
:10DEA000DE6049692E00996109990029BED0586049
:10DEB000BCE703990898091A0902090AB94202D273
:10DEC0007F1A1F60BEE700211960BBE7C01BCF6946
:10DED0008C46002F07D039000F688742F6D33F1ACF
:10DEE0000F600F0061461860DF61CB6113001A00FC
:10DEF000DDE694461100EFE7FDF75AFF38E7C0462C
:10DF0000342E0020B42F0020B42D00200405000082
:10DF10000010014000E100E0FCE100E0FEFF7F00B6
:10DF2000B54209D1DB690800002B05D107480F0075
:10DF300081608C46080007932C68ED69F561002D1F
:10DF400000D189E62E6834192C6085E60010014066
:10DF5000F8B50024214B224D5C649C64DC641C6594
:10DF60005C609C606969A14235D01E4B1E4AD65840
:10DF70001E4B1B69F61A3602360A0B68B34219D8D3
:10DF8000F61AE4180B7CCF69002B11D000230B7418
:10DF9000174B9A694B698969002A07D01800904786
:10DFA000002805D0FDF7C0FB3900E6E708009847D8
:10DFB000002FF9D12A7E6B7E934204D10133DBB26C
:10DFC000022B09D06B7680226B7E52039B00ED18EA
:10DFD000084B6C675A60F8BD0023F3E7FC10014062
:10DFE000B42F00200405000000100140342E002052
:10DFF000342F0020FCE100E0A8DF70470023F0B5DB
:10E000009FB012930022002314921593564B16933F
:10E01000564B1793564B1893564B1993564B1A93CE
:10E02000564B1B93564B1C93564B1D9300296AD19C
:10E030008026040000274518B600A54268D1524D3D
:10E040006C6D002C61D08021129A02A8531C81545F
:10E05000372A00D977E00022382B00D06FE01299E0
:10E060004B0FCA001498159912184B41009001915A
:10E070003F2116001F0002ABC9180E703E21300A66
:10E08000C91808703D21300CC918087011AA310E4A
:10E0900011703B22D21817703A22390AD218117027
:10E0A0003922390CD218117002A910AB3A0E0800AF
:10E0B0001A7014961597FDF753FC23005807043483
:10E0C000C01A1D991A18D200D14019701C99013339
:10E0D000D140D9701B99D140D9711A99D140D972C8
:10E0E0001999D140D9731899D140D9741799D14051
:10E0F000D97516990091D140D9769C42E1D120235F
:10E100000020AB6502E0002892D10E201FB0F0BDC8
:10E11000129B227802A9CA5401331293402B0CD1CE
:10E120000800FDF71DFC149A159B009201939219AB
:10E130007B41149215930023129301347DE702A9C9
:10E14000CA54013388E7002202A93F2B08D90800EE
:10E15000FDF706FC3822002102A8FCF761FE7EE7ED
:10E16000CA540133F0E7C04667E6096A85AE67BB6B
:10E1700072F36E3C3AF54FA57F520E518C68059BA9
:10E18000ABD9831F19CDE05B342D0020AE22F0B552
:10E190000025B34EB34B89B05200B34930001D7314
:10E1A00001F0C9F83468631C06D02A005821AF4832
:10E1B000FDF7ACFC84420ED0AE22002152003000AC
:10E1C000FCF72EFE012300207360FEF76BFB002896
:10E1D00001D0FDF7A9FAA64B1A6803933369012B06
:10E1E00012D07369002B0FD0B369A249A24D5C18FD
:10E1F000A40AA402A418AB68A52B00D1EDE006D8B0
:10E20000012B13D0002566E014009C4DF3E7AA2BE8
:10E2100000D1F0E0AC2BF5D12000FEF78BFB0028FD
:10E2200058D129002000FEF7CFFBE2E073690025FA
:10E23000012B50D1736A356B029353190193029BE2
:10E240005D1B80232E00DB009D4200D91E000022B2
:10E2500001210198FDF7AAFF031E3BD132002100E6
:10E260000198FEF741F8002834D103230493019B61
:10E2700004A80593B30806940793FDF7BBF9021EA3
:10E2800028D101212000FDF791FF002822D1744FF1
:10E29000A4193B6BAD1B9B193B63FEF703FB019B72
:10E2A0009B190193002DCCD1039B2A001868029979
:10E2B000FDF72CFCBB6A984204D101233B62029B10
:10E2C000F861BB616C48FDF705FE0020FEF7EAFA35
:10E2D000002800D00125624B9A6D012A00D090E001
:10E2E00000209865FEF7DEFA002800D071E70122D1
:10E2F000A126634B6349644D5A506449F600595155
:10E300009A511A60C0226249D2009950FDF750FD1F
:10E31000002405215F4B604A80209A615F4A1C33CC
:10E320005C32148091705D4AC5271366C0225C4B35
:10E3300040035C611C765C765A4B52009850BF00DB
:10E34000D959813A91433F3A0A43DA511860C420BF
:10E35000554980008C511A58544E554F1640C022D2
:10E36000120232431A504B59524D534E2B61534BAC
:10E37000F61BAB61524BF608EB616B1DDC77082393
:10E380002B840C336C756B84A64257D10122434B0E
:10E39000334C583319780A431A70324A494B536444
:10E3A0000423536100239360A36B002B12D0FEF76C
:10E3B0004CFA00280ED0236A002B47D1A369002B0A
:10E3C00044D0414AD362404B4035D86AFDF742FD04
:10E3D00001232B70FDF70CFDFCE72000FEF7AAFAE5
:10E3E000041E00D076E72800FDF774FD2000FEF73C
:10E3F00059FA01256CE729002000FEF7E5FA00250F
:10E4000066E7002D00D072E7FDF79EFB002800D1E3
:10E410006DE7039B1C68FDF7EFF8002802D1200090
:10E42000FDF72BF9039B1C68FDF7E6F8002802D1E5
:10E430002000FDF722F9002009B0F0BDE300FB58F1
:10E440009847002800D0C4E601349DE7E36A002B1A
:10E45000C0D1A369002BBDD0626A1B4BDA62B2E760
:10E460000C380020342D002000FC03001038002060
:10E4700008300000FF03000030380020243800205E
:10E48000000001400C0500000405000001001E0012
:10E490003546526E342F0020B9CA0300B42D002037
:10E4A000B42F002000E100E000100140FF00FFFF5A
:10E4B000802C0020342E0020882C002034300020B6
:10E4C000DC300020C5C00300B42E002003210A4820
:10E4D00002680A430260094802680A430260084968
:10E4E000084A094B9B1A03DD043BC858D050FBDC9B
:10E4F000FFF7DCF9FCF708FC240500405405004058
:10E500003CF70300002C0020882C0020FEE7FEE7EB
:10E51000FEE7FEE7FEE7FEE7002A00D17047013A7A
:10E520008B5C8354F8E730B5013A52B29300002A6D
:10E5300001DA002030BDC558CC58A54205D8043BAF
:10E54000A54204D3013A52B2F1E70120F2E70120DB
:10E550004042EFE700000000000000000000000063
:10E5600070B50824E31ADB0001330400002003A582
:10E570005B1920C940CAAD1920C4184720C940CA38
:10E58000754120C420C940CA754120C420C940CA71
:10E59000754120C420C940CA754120C420C940CA61
:10E5A000754120C420C940CA754120C420C940CA51
:10E5B000754120C4404170BD000000000000000013
:10E5C00070B50824E31ADB000133002403A5C0461C
:10E5D0005B1920C940CAAD1B20C0184720C940CADA
:10E5E000B54120C020C940CAB54120C020C940CA99
:10E5F000B54120C020C940CAB54120C020C940CA89
:10E60000B54120C020C940CAB54120C020C940CA78
:10E61000B54120C064416042604170BDF0B5DE4646
:10E6200057464E464546E0B5013B9B0098465B0089
:10E630009946002300240025002601B4002702E0AB
:10E64000370040463F1A9A46A346AC46B646F01BF2
:10E650001458C859030C80B2250CA4B21E006E4396
:10E660006343454360431C041B0C00195E412C04AA
:10E670002D0C00196E4153465C4665461B187441CB
:10E680000020454176460437474501DCB742DADDD4
:10E690000098835123462C46002504364645CDDD9F
:10E6A0004E45CDDD835101BC3CBC90469946A24607
:10E6B000AB46F0BDF0B5DE4657464E464546E0B5A2
:10E6C000013A920090465200914600220023002415
:10E6D000002501B4002602E02E004046361A92467C
:10E6E0009B46A446AE46AF1BCB598859020C80B25C
:10E6F0001C0C9BB2150065435A4344435843130412
:10E70000120CC01855412304240CC0186541524610
:10E710005B466446BE4203DA002712186B417C4117
:10E72000002712186B417C4175460436AE4202DA6E
:10E73000AF1BBE42D3DD009842511A462346002447
:10E7400004354545C6DD4D45C6DD425101BC3CBCE6
:10E7500090469946A246AB46F0BD002310B51C007A
:10E760005AB2914200DC10BD9A0084500133F7E7A1
:10E77000F7B51E0001910223F45E050021001F2061
:10E780001F31CB1703405B1807215F11E31DDC1716
:10E790000C40E418E410944200D914007BB2190034
:10E7A00028000093FFF7D9FF220001992800FFF706
:10E7B000B3FE0222B35EE4009C4217D92022E41A81
:10E7C000BB000027EB18121B043B191D8D420ED312
:10E7D0002436009A29003000FFF7A5FE012805D055
:10E7E000009B320029002800FFF7EAFEF7BD1868F9
:10E7F0000100E1409040394319600700E4E700223E
:10E80000130010B554B2A14202DC5842584110BD69
:10E810009400045901322343F4E71F234A1119409D
:10E820001E3B8B409200105818407047020001397F
:10E8300049B2CBB2080605D40139880010184068E7
:10E840000028F6D0002001335BB283420AD007498A
:10E850005918890089580200002904D1581E400126
:10E86000801800B2704749080132F5E7FFFFFF3F0B
:10E87000002330B55CB2A24200DC30BD9C000D59D3
:10E8800001330551F6E70000F0B50C0000278BB00E
:10E8900008220500FFF7ECFFE36A02AA0593236B49
:10E8A00011000693636B10000793A36B0497089302
:10E8B000E36B0397099308230297FFF751FE0823A0
:10E8C000060002AA29002800FFF74AFE236B02AACD
:10E8D0000593636B11000693A36B36180793E36BE4
:10E8E0001000089308230997FFF73AFE082336180B
:10E8F00002AA29002800FFF733FE236A3618029384
:10E90000636A02AA0393A36A29000493A36B2800F5
:10E910000893E36B07970993082306970597FFF77A
:10E920001FFE636AA26B0293A36A06920393E36AD3
:10E93000E26B0493636B361805930893236A07927E
:10E94000099302AA082329002800FFF709FEE36AB9
:10E9500036180293236B02AA0393636B2900049376
:10E96000236A28000893A36A079709930823069748
:10E970000597FFF725FE236B361A0293636B02AAF5
:10E980000393A36B29000493E36B28000593636A48
:10E9900007970893E36A069709930823FFF710FE89
:10E9A000636B361A0293A36B02AA0393E36B2900ED
:10E9B0000493236A28000593636A08970693A36A61
:10E9C0000793236B09930823FFF7FAFDA36B361A0D
:10E9D0000293E36B02AA0393636A29000593A36A77
:10E9E00028000693E36A04970793636B08970193E3
:10E9F00009930823FFF7E4FD341A0F4EBC4210DAE6
:10EA00000823320029002800FFF7AAFD2418F7D4B4
:10EA10000BB0F0BD0823320029002800FFF7D0FD1D
:10EA2000241A002CF6D1082229003000FFF77BFDC4
:10EA30000128EFD1ECE7C04684F603000023013A39
:10EA400052B270B59400002A02DA5842584170BDA3
:10EA500005590E59013A75402B4352B2043CF2E776
:10EA6000002210B58900411804390B1D984200D3CB
:10EA700010BD0C68630813430B60E207F4E7000065
:10EA800070B50368040015000026DB0705D51300E8
:10EA90000A000100FFF764FD060029002000FFF7CF
:10EAA000DFFF002E08D0054BED188023AD00641960
:10EAB00022681B061343236070BDC046FFFFFF3F63
:10EAC00070B500251E0004AB5D5704002B00FFF756
:10EAD00047FD002806D12A0021003000FFF723FD62
:10EAE000012805D02B00320021002000FFF768FD2F
:10EAF00070BD70B500251E0004AB5D5704002B00EF
:10EB0000FFF75EFD002805D02B0032002100200019
:10EB1000FFF726FD70BD0000F0B51E00A9B018ABD0
:10EB2000049007911000310006931700FFF77EFE56
:10EB3000B301181A03B21F20DC170440E4183B4D40
:10EB40006411019364B21D4004D52023013D5B4252
:10EB50001D430135210008A82DB2FFF7FEFDA400DA
:10EB6000002D25DD08AB9C4600232022A4441C0078
:10EB7000B000521B834212D101247300029308AAF1
:10EB8000B300D3180393019B002B49DA06ABA40012
:10EB90003200E1580498FFF76BFE29B0F0BDF95838
:10EBA000A94021436446E150FC580433D440E1E7D6
:10EBB00008AB181932003900FFF75AFEDCE706A847
:10EBC000A10009589700C85908A97958411AC91ACB
:10EBD000884202D088429B415B4206A840590132DC
:10EBE0000590C15152B202998A42E8DBE41A6342AD
:10EBF0005C4108AD31002800FFF732FF721EB30000
:10EC000092005B595159DB070B4303983100535174
:10EC1000FFF726FF0198E4B2013803B20193B2E78F
:10EC2000012100220D1B1300AD00DCE71F00008056
:10EC300070B5002405001E0090B014AB1C57684648
:10EC40002300FFF7EBFC2300320069462800FFF7A2
:10EC500063FF10B070BD30B51C000023050091B0FB
:10EC6000E3566846AC34FFF7D9FC236869462800B0
:10EC7000984711B030BD30B514000022050091B0A6
:10EC8000A2566846AC34FFF715FD23686946280094
:10EC9000984711B030BDF0B58DB0040015000F00DD
:10ECA0001C22002105A8FCF7BBF8032304930023D2
:10ECB000EB562A00390020000393FFF7DCFF039B8B
:10ECC0002E1D009304AA330021002000FFF711FF3E
:10ECD0002B003A0021002000FFF7BDFF2A00039B14
:10ECE00084320093210033002000FFF7E9FE0DB0CD
:10ECF000F0BD0000F0B5002697B0049103939E5735
:10ED00000500310010001400FFF779FD002800D045
:10ED100092E0039A049906A8FFF7ADFF039B06AAA9
:10ED200029000EA8FFF797FF06A90800039AFFF72E
:10ED3000A2FF0499039B08002200FFF78CFF039AAF
:10ED400021002000FFF797FF039B22001F1D3B00BF
:10ED5000290028000096FFF7B3FE3B0022002100A7
:10ED600020000096FFF7ACFE3B00220029002000A7
:10ED70000096FFF7BEFE039B220029002800FFF744
:10ED80006AFF3B002A00290020000096FFF798FE4A
:10ED90003B000096220029002800FFF791FE2B6817
:10EDA000DB074BD533003A0029002800FFF7D8FBDA
:10EDB000310005902800FFF753FE234B059AF31806
:10EDC0009B00EB181968D2070A431A60039A2900BE
:10EDD0002000FFF750FF3B000EAA21002000009604
:10EDE000FFF787FE3B000EAA210020000096FFF7E8
:10EDF00080FE0EA908003B0022000096FFF779FE76
:10EE0000039B0EAA29002800FFF725FF06AA3B0056
:10EE1000100029000096FFF76CFE32002100280048
:10EE2000FFF726FD320004992000FFF721FD320094
:10EE300006A90498FFF71CFD17B0F0BD31002800AB
:10EE4000FFF70EFEC2E7C046FFFFFF3FF0B500250B
:10EE500014001E008DB0129B029003915D571F1D80
:10EE60003B000200210004A80095FFF742FE04A920
:10EE7000129A0800FFF7FFFE0299129B04AA0800ED
:10EE8000FFF7E9FE129B04AA21002000FFF7E3FE32
:10EE90003B00039A310030000095FFF72AFE129ADA
:10EEA000310004A8FFF7E7FE04A93B00029A08001E
:10EEB0000095FFF71EFE04A93B0022000800009504
:10EEC000FFF717FE3B00029A210020000095FFF794
:10EED00010FE0399129B22000800FFF7BCFE3B00C6
:10EEE00004AA029920000095FFF703FE129B22005E
:10EEF00031003000FFF7AFFE3B00039A31003000D5
:10EF00000095FFF7F6FD2A0004A92000FFF7B0FCEA
:10EF10000DB0F0BDF0B516001C0007000D0089B063
:10EF20001A0031006846FFF7A6FE23006A46390042
:10EF30003800FFF790FE2300320069466846FFF76D
:10EF40008AFE23006A4629002800FFF784FE09B0E4
:10EF5000F0BDF0B50E00A3B0070019003000150099
:10EF60001C00FFF74CFC002805D021003800FFF7FB
:10EF7000F4FB23B0F0BD31000126220002A8FFF708
:10EF800077FC220029000AA8FFF772FC210012A8D2
:10EF9000FFF7E3FB21001AA81296FFF7DEFB220021
:10EFA0000AA902A8FFF7BFFA002805D1220012A97A
:10EFB0003800FFF75DFCDCE7029B0193334209D187
:10EFC000210002A8FFF74CFD2200290012A8FFF73C
:10EFD00057FDE4E70A9B0193334207D121000AA8B9
:10EFE000FFF73EFD220029001AA8F0E723000028C1
:10EFF0001CDD02A90AAA0800FFF7E2FA210002A814
:10F00000FFF72EFD22001AA912A8FFF78CFA00289C
:10F0100005DA12A923002A000800FFF7A1FA12A9B5
:10F0200023001AAA0800FFF7CBFACDE70AA902AA23
:10F030000800FFF7C5FA21000AA8FFF711FD22001A
:10F0400012A91AA8FFF76FFA002805DA1AA92300F7
:10F050002A000800FFF784FA1AA9230012AA080060
:10F06000FFF7AEFABEE700000048704780F60300E5
:10F07000F0B50024EFB007911F2100251F00749BFD
:10F08000089009921C5702229A5E56AE1F32D3177F
:10F090000B409B185B115BB20393013B9B000693F3
:10F0A000069A26ABD550F93108AB5B189D509551A7
:10F0B0000122749B39009A564EA8FFF72DFA0122BF
:10F0C000749B30009A56B918FFF726FA21004EA813
:10F0D000FFF795FB0700A84200D0D6E021003000E2
:10F0E000FFF78DFB3D000590002800D0CDE0749B1C
:10F0F000039A24334EA918000493FFF714FA059DD0
:10F10000012800D0C1E0039A31000498FFF70BFA00
:10F11000059D012800D0B8E03100039B049A1EA889
:10F12000FFF717FF069B059A0EAE9A510799749B3D
:10F13000099A3000FFF71CFB039B1EAA00933100C5
:10F14000049B3000FFF774FD039B5EAD00931EAA85
:10F15000049B4EA916A8FFF76BFD28002200089912
:10F16000FFF786FBA300EF180993089BA2009918EC
:10F1700038002200FFF77CFB749B22004433190007
:10F1800036A80793FFF774FB079BA20099183EA8C7
:10F190002200FFF76DFB749B2900043336AA1EA8DA
:10F1A00000940693FFF7A5FC749B2A0000933EA9E8
:10F1B0003B0036A8FFF74AFE1EA908002300069A66
:10F1C000FFF7C7FE1EAA39002800749BFFF7A2FEB6
:10F1D000059B03990A93079B30000B93089B0D95A1
:10F1E0000C93FFF723FB0399070016A8FFF71EFBFC
:10F1F0003D1C874200DA051CADB26F1E3FB23900DC
:10F200003000FFF70AFB06003900701E864116A881
:10F21000FFF703FB431E9841400006430AABB600CC
:10F22000F6582200310026A8FFF722FBA300F118B0
:10F2300022002EA8FFF71CFB21001EA8FFF78DFA65
:10F240000123023D1E932DB2002D21DA1EA90800D4
:10F250002300069AFFF77DFE1EAA2EA926A8749BFE
:10F26000FFF758FE039A26A90498FFF75CF90128D6
:10F2700005D026A9039B049A0800FFF7A1F92200F4
:10F280004EA926A8FFF7DAFB050028006FB0F0BDF5
:10F29000749B1EAAA4331E682EA9749B26A8B0478F
:10F2A00029000EA8FFF7B9FA06002900701E864152
:10F2B00016A8FFF7B2FA431E984140000643B60075
:10F2C0000AABF658002E25D02200310036A8FFF7F1
:10F2D000CFFA099B2200F1183EA8FFF7C9FA749BE8
:10F2E0001EAA3EA936A8FFF715FE069B36AA26A938
:10F2F00046A80094FFF7FDFB749B26AA00933EA945
:10F300002EAB36A8FFF7A2FD1EA9749B46AA0800E3
:10F31000FFF7A1FC013D96E730B50024A24201D1E0
:10F32000002005E0035D651C0C5DA34201D0181BA5
:10F3300030BD2C00F2E7002310B59A4200D110BD79
:10F34000CC5CC4540133F8E70023C25C0133002ACB
:10F35000FBD1581E7047000002B4714649084900AD
:10F36000095C49008E4402BC7047C04603B4714634
:10F37000490840004900095E49008E4403BC7047BB
:10F3800003B47146490840004900095A49008E44B7
:10F3900003BC70479140031C90409C46203A934028
:10F3A000194352426346D34019437047F8B5C046EB
:10F3B000F8BC08BC9E467047F8B5C046F8BC08BC0F
:10F3C0009E467047002C0020011104FC0400000040
:10F3D00000000000021104FC040000000000000016
:10F3E000032104FC0404000000000000041101FFDC
:10F3F0000100000000000000051102FE04000000F2
:10F4000000000000061104FC0400000000000000E1
:10F41000071104FC0400000000000000081701FFB1
:10F4200022000000DCF40300091001FF01000000CD
:10F43000D8F40300000000000000000000000000FD
:10F44000F9B203009FB203003FB20300BBB4030054
:10F45000A1B4030069B403002DB403000BC803007A
:10F4600000000000011704FC7000000048F50300D4
:10F47000021704FCB400000018F5030000000000AF
:10F4800000000000000000009401EBFB66C85F581C
:10F4900012285F6CD3CE71604C053EBB202ED9A4E0
:10F4A0008DAC84239A6B7F334243CF577CF71AD6B7
:10F4B000DA8D7AE68BEB4946998E4A3233CC60D8A6
:10F4C0006B79FE4B8BD0A09A50EADA308883B89FD4
:10F4D000604F15F30000C98E00000000010100001C
:10F4E00001000000000000000205000021000000F3
:10F4F000000000000000000000000000000000000C
:10F5000001010000040000000000000000000000F5
:10F510000000000000000000010700007000000073
:10F5200048F5030002010000010000000000000097
:10F530000305000041000000000000000000000082
:10F540000000000000000000011101FF01000000A8
:10F5500000000000021702FE64000000C8F3030070
:10F56000031704FC0400000000F503000000000085
:10F570000000000000000000982F8A42914437717B
:10F58000CFFBC0B5A5DBB5E95BC25639F111F15926
:10F59000A4823F92D55E1CAB98AA07D8015B831268
:10F5A000BE853124C37D0C55745DBE72FEB1DE8014
:10F5B000A706DC9B74F19BC1C1699BE48647BEEF43
:10F5C000C69DC10FCCA10C246F2CE92DAA84744ACE
:10F5D000DCA9B05CDA88F97652513E986DC631A844
:10F5E000C82703B0C77F59BFF30BE0C64791A7D523
:10F5F0005163CA0667292914850AB72738211B2EAB
:10F60000FC6D2C4D130D385354730A65BB0A6A7692
:10F610002EC9C281852C7292A1E8BFA24B661AA89E
:10F62000708B4BC2A3516CC719E892D1240699D6AE
:10F6300085350EF470A06A1016C1A419086C371E27
:10F640004C774827B5BCB034B30C1C394AAAD84E05
:10F650004FCA9C5BF36F2E68EE828F746F63A57840
:10F660001478C8840802C78CFAFFBE90EB6C50A4D3
:10F67000F7A3F9BEF27871C64466755461726700EB
:10F6800008200001FFFFFFFFFFFFFFFFFFFFFFFF5D
:10F690000000000000000000000000000100000069
:10F6A000FFFFFFFF512563FCC2CAB9F3849E17A771
:10F6B000ADFAE6BCFFFFFFFFFFFFFFFF0000000009
:10F6C000FFFFFFFF96C298D84539A1F4A033EB2D78
:10F6D000817D0377F240A463E5E6BCF847422CE164
:10F6E000F2D1176BF551BF376840B6CBCE5E316BA8
:10F6F0005733CE2B169E0F7C4AEBE78E9B7F1AFE6C
:10F70000E242E34F4B60D2273E3CCE3BF6B053CCB7
:10F71000B0061D65BC86987655BDEBB3E7933AAA53
:10F72000D835C65AF5EC030097EC030089E80300CE
:10F7300000000000D4B5FF7F0100000000000000C1
:10F7400000000000000000000000000000000000B9
:10F7500000000000000000000000000000000000A9
:10F760000000000000000000000000000000000099
:10F770000000000000000000000000000000000089
:10F780000000000000000000000000000000000079
:10F790000000000000000000000000000024F40051
:10F7A000FFFF0100E9AC0300C1AC03000010000042
:10F7B000000C040013B60300000000004DD5030048
:04F7C0005DBC030029
:10FC00001F580C76010000000000000000000000FA
:10FC10000000000000000000A8D10000E70E9FB522
:10FC200001000000000000000000000000000000D3
:10FC300000000000000000000000000000000000C4
:10FC400000000000000000000000000000000000B4
:0CFC5000000000000000000000000000A8
:020000041000EA
:0410140000AC030029
:00000001FF
